:0E0000002DC0FECFFDCFFCCFFBCFFACF56C0F8
:10000E0059C0F7CFF6CFF5CFF4CFF3CFF2CFF1CF74
:10001E00F0CFEFCFEECFEDCF1027E80364000A004C
:10002E00010000100001100001007C000100020020
:10003E00030004000500060007000800020001008E
:10004E003C003E000000060004004E000000F89444
:10005E00EE27ECBBF1E0FBBFEBBFE5BFF8E1F1BD76
:10006E00E1BD8DE0A2E0BB27ED938A95E9F780E034
:10007E0094E0A0E6ED930197E9F7E4E5F0E08591D1
:10008E009591009761F0A591B59105901590BF01DE
:10009E00F00105900D920197E1F7FB01F0CFEFE52E
:1000AE00EDBFE4E0EEBFC0E6D1E015C0EA93E1E0BB
:1000BE008E2E03C0EA93E1E09E2EE9911895E88119
:1000CE00E066E7B985E38A95F1F7369A349BFECF61
:1000DE00349AE5B186C141D0E0E0F4D1969A979872
:1000EE00F7D172D0E8ECF0E0F8D185D278944A924C
:1000FE0074D16A9272D1F4D1F6D1E0916601F5D144
:10010E00E7E0F0E0F0D1E0916E01EFD1E5E0F0E054
:10011E00EAD1E0916A01E9D1E0E0F0E0DED163D10D
:10012E00E0917601E2D1E4E0F0E0DDD1E09168010A
:10013E00DCD1E6E0F0E0D7D1E0916C01D6D1E1E080
:10014E00F0E0CBD150D1E0917801CFD1C1D14BD1DC
:10015E00E0917A01CAD1CBCFFFCFE0E0E8BBE7BB9D
:10016E00E5BBE4BBE2BBE1BBE3BFE2BFEFBDEBE04F
:10017E00EEBDE0E0EDBDECBDE7BDE6BDE9E0EBBDFB
:10018E00E4ECEABDE7E0E9BDE0EDE8BDE0E0E2BDAC
:10019E00E5BDE4BDE3BDE5BFE8E1E9BFE0E0EBB9F5
:1001AE00E8E0EAB9E6E8E0BDE0E0E0BDE7E6E9B99F
:1001BE00E0E8E8B9E0E0E0BFE0E6E7B9E5E8E6B997
:1001CE00E0E0EDB9E6BF0895B39903C0E1E0F0E0D9
:1001DE0004C0B39B03C0E2E0F0E06F01E881F98157
:1001EE00E130A0E0FA0719F4E0E0E0BD07C0E2302C
:1001FE00A0E0FA0721F4E0E0E0BDE7E6E9B9F89403
:10020E007894E9C0969B02C0969801C0969A979BE7
:10021E0002C0979801C0979AE0E0EEBD9924882419
:10022E00E0E0F0E0FDBDECBDE8B3E070E8BBE7B3A5
:10023E00E070E7BBE5B3E070E5BBE4B3E070E4BBB0
:10024E00EBE0EEBDE881F981E330A0E0FA07E9F4D6
:10025E00A39AAB9A4CD1AB98A3984DD19B9B02C05D
:10026E004ED109F001C0FACFA0E09B99A1E0A030D9
:10027E0011F445D109F001C0F7CF44D19B9B02C0C8
:10028E003ED109F001C0FACF83C0E430A0E0FA07F6
:10029E00E9F4A49AAC9A2BD1AC98A4982CD19C9B3F
:1002AE0002C02DD109F001C0FACFA0E09C99A1E0C7
:1002BE00A03011F424D109F001C0F7CF23D19C9BBB
:1002CE0002C01DD109F001C0FACF62C0E530A0E036
:1002DE00FA07E9F4A59AAD9A0AD1AD98A5980BD173
:1002EE009D9B02C00CD109F001C0FACFA0E09D99F0
:1002FE00A1E0A03011F403D109F001C0F7CF02D173
:10030E009D9B02C0FCD009F001C0FACF41C0E6307F
:10031E00A0E0FA07E9F4B89AC09AE9D0C098B89864
:10032E00EAD0B09B02C0EBD009F001C0FACFA0E03A
:10033E00B099A1E0A03011F4E2D009F001C0F7CFDE
:10034E00E1D0B09B02C0DBD009F001C0FACF20C0D3
:10035E00E730A0E0FA07F1F4B99AC19AC8D0C19873
:10036E00B998C9D0B19B02C0CAD009F001C0FACF6A
:10037E00A0E0B199A1E0A03011F4C1D009F001C004
:10038E00F7CFC0D0B19B02C0BAD009F001C0FACFEE
:10039E00E0E0EEBDE881F981A0E6B1E0B5D0FF93D3
:1003AE00EF93ECB5FDB5B5D0A0E0B0E686E896E4E7
:1003BE0019D2A0E0B0E080E892E4AFD0E0E0F4E241
:1003CE0064E77BE45DD250D1AF91BF91AAD0EBE050
:1003DE00EEBDE0E0EEBD229608955D9BFECFE88176
:1003EE00ECB921960895BED29FD0E0E0E093700163
:1003FE00E0937101E0937201E0937301E093740155
:10040E00E0937501E0938601E0938701E8E8F1E05F
:10041E008ED0EAE8F1E08BD0ECE8F1E088D0EEE89F
:10042E00F1E085D0EA81FB813097B1F47DD084D0A4
:10043E006CF4E0E085D0FF93EF939DD0A9D0AF91FF
:10044E00BF9112D16ED00F5F1F4FF1CFB5D0E09399
:10045E007601F093770133C0E130A0E0FA07B1F4F2
:10046E0063D06AD06CF4E1E06BD0FF93EF9383D04E
:10047E008FD0AF91BF91F8D054D00F5F1F4FF1CFF7
:10048E009BD0E0937801F093790119C0E230A0E09F
:10049E00FA07A9F449D050D06CF4E2E051D0FF93A2
:1004AE00EF9369D075D0AF91BF91DED03AD00F5F88
:1004BE001F4FF1CF81D0E0937A01F0937B0155D29B
:1004CE0024960895EEBDE0E0F0E0FDBDECBD08958C
:1004DE00E2E0F0E0FA93EA930895FA93EA9308952E
:1004EE00E3E0F0E00895F9DF8DCEEA9376CF8BE16D
:1004FE008A95F1F7089585E18A95F1F70895E0E080
:10050E00E9150895EBE0DECFEE0FFF1FEA0FFB1F9C
:10051E00089566277727E1D0089564D1DF01CB01D6
:10052E000895ED93FC93089500E010E00895A0E087
:10053E00B0E0A083B18308950530E0E01E07089572
:10054E00EA93BDDDF0E0E0937001F0937101E1DF1D
:10055E00DF01CB01E0E0F0E06CE472E491D1E093D6
:10056E007201F09373016093740170937501F80139
:10057E00A6E8B1E0C9CFE0917201F09173016091EC
:10058E00740170917501ABE0B4E288EA9DE3C5CFCA
:10059E00E7E2F0EA69E87BE3D8D1D2D0A0E0B0E0A0
:1005AE0080E89FE36DD1DF01CB01EDE3FAE067ED6B
:1005BE007EE3CBD1C5D00895E0918801F0918901F9
:1005CE00A0918601B0918701AE0FBF1FE0918A0105
:1005DE00F0918B01AE0FBF1FE0918C01F0918D0158
:1005EE00AE0FBF1FE0918E01F0918F01AE0FBF1FB6
:1005FE0077DF98D10895E991F991309639F080EA34
:10060E009FE00197F1F7A8953197C9F70895552303
:10061E0042F4503811F4E0FF04C03196691F791F7F
:10062E006BF050E8572711F45F93CAC05F3F31F06B
:10063E00660F000C57956795752F08955F930020F0
:10064E000AF0CAC0C3C050E8192E1522880F991F90
:10065E009527550F879550E8072E0522660F771FB1
:10066E007527550F67950895689401C0E8945F93B8
:10067E00F2DF703818F07F3F08F4A2C056E1571B26
:10068E00AAF4519558300EF4593030F0EFEFFFEFD9
:10069E006FEF7FE777F91AC077275523B9F0EE0F82
:1006AE00FF1F661F771F5A95D1F710C07727583056
:1006BE0028F0EF2FF62F672F5850F9CF552331F032
:1006CE0076956795F795E7955A95D1F700200AF438
:1006DE001CD15F910895689401C0E89430976040F2
:1006EE007040B1F0002426F0772312F400940DD15F
:1006FE00172E7EE1112032F07A95EE0FFF1F661F46
:10070E00111CF9CFEF2FF62F612D5F938ADF5F91CA
:10071E0008954F93AF01FD01DA01AB01BC01CA018F
:10072E00402D012C142E4F910895EA0FFB1F681FC8
:10073E000895E095F0956095EF5FFF4F6F4F089528
:10074E005F9381DF903849F150E81526703821F11A
:10075E00572F591B2BF112F4DCDFFACF583118F05A
:10076E00AA27BB278827583028F0AB2FB82F882709
:10077E005850F9CF552329F08695B795A7955A95D8
:10078E00D9F7502D512572F0D0DF38F46795F795D3
:10079E00E795739513F420C0BCDF43DF5F91089596
:1007AE00D8F7FBCFEA1BFB0B680B51F010F400944B
:1007BE00C0DF662392F3EE0FFF1F661F7A95CBF70D
:1007CE00EE27FF27662777275F910895EFEFFFEF5C
:1007DE006FE77FEF5F910895EFEFFFEF6FE77FE732
:1007EE005F9108955F932FDF703851F3903841F386
:1007FE0001240894791F23F41CF300203AF3ECCF64
:10080E000F921F932F933F934F93112722279927D0
:10081E00689FA0018F9F302D410D591F6B9F300D8A
:10082E00411D591F8E9F27D0BF9F25D06A9F23D071
:10083E00BE9F1DD0AF9F1BD0AE9F110D291F391F1C
:10084E00491F591FE32FF42F652F522F4F913F91C0
:10085E002F911F910F9066232AF0550FEE1FFF1F49
:10086E00661F02C073954BF2D2DE5F910895100D94
:10087E00211D391F02C0200D311D491F591F08951A
:10088E005F93E1DE703821F411200AF49FCFA4CFDC
:10089E00903809F495CF01240894970B1BF4D4F3E8
:1008AE000020F3CF792F1F932F933F934F93112453
:1008BE001127222733274427552790E2AE17BF076B
:1008CE008607410730F0AE1BBF0B860B410B089419
:1008DE0001C08894551F221F331F111CAA1FBB1F56
:1008EE00881F441F9A9551F7F901612D4F913F9141
:1008FE002F911F91662332F0550FEE1FFF1F661FBB
:10090E007A9543F284DE5F910895F0956095709527
:10091E00E195FF4F6F4F7F4F08956F2F660F660B58
:10092E00762F08950024112490E1AA0FBB1F001CFE
:10093E00111C0E1A1F0A18F40E0E1F1E01C0A16004
:10094E009A9599F7FD01D0010895182E862F612DE5
:10095E00192E972F712D1B2EBF2FF12D1A2EAE2F64
:10096E00E12D08951A930A93089519810881089527
:00000001FF
