:0400000054C0FECF1B
:10000400FDCFFCCFFBCFFACFF9CFF8CFF7CFF6CFA8
:10001400F5CF78C0F3CFF2CFF1CFF0CFEFCFEECF63
:10002400EDCF1027E80364000A000100001000016E
:10003400100001000000020001003C003E007C00B2
:100044000100020003000400050006000700000090
:1000540001002D4E414E00494E46000001000200B1
:100064003800010078013E0001007A0140000100DF
:10007400800144000100820146000100840148001F
:10008400010086014A00010088014C0001008A0138
:100094004E0001008C01500002000C0052000100CF
:1000A4008E0154000000F894EE27ECBBF1E0FBBF96
:1000B400EBBFE5BFF8E1F1BDE1BD8DE0A2E0BB27F8
:1000C400ED938A95E9F780E094E0A0E6ED9301973B
:1000D400E9F7E0E6F0E085919591009761F0A5914C
:1000E400B59105901590BF01F00105900D9201970F
:1000F400E1F7FB01F0CFEFE5EDBFE4E0EEBFC0E6D2
:10010400D1E02DC0EA93FA93EFB7EA9353D11BB130
:100114000CB1E12FEC7189F4E72D73940DD1E05A01
:10012400FE4F0083E8E0E71509F477249394E8E0B0
:10013400E91519F49924689420F83FD1E991EFBFA7
:10014400F991E9911895E881E066E7B985E38A9524
:10015400F1F7369A349BFECF349AE5B1E2C08FD0E2
:10016400E2E0F0E0EBD0BAD0E0E0EBD0E5D0E09311
:100174006801F0936901E1E0E4D0AAE6B1E0E3D0DC
:10018400E2E0DFD0ACE6B1E0DED0E3E0DAD0AEE628
:10019400B1E0D9D0E4E0D5D0A0E7B1E0D4D0E5E037
:1001A400D0D0A2E7B1E0CFD0E6E0CBD0A4E7B1E075
:1001B400CAD0A0906E01B0906F01C9D0BFD0CCD08E
:1001C400D0D0D6D0CED0D9D0CCD0DCD0CAD0DFD00D
:1001D400C8D0E2D0B3D0A7D0E0937C01F0937D01E6
:1001E400E0D0A436E0E0BE07C0F1C7D0DFD029F4E8
:1001F400C0908601D09087012FC0C4D0D7D029F4F5
:10020400C0908401D090850127C0B2D0CFD029F40A
:10021400C0908801D09089011FC0B9D0C7D029F4FB
:10022400C0908201D090830117C096D0BFD029F42A
:10023400C0908A01D0908B010FC0AED0B7D029F402
:10024400C0908001D090810107C081D0AFD021F44B
:10025400C0908C01D0908D0104C0C0907E01D090DC
:100264007F01E0917801EA9358D0E0917A01EA9312
:1002740054D0CA9252D0AA9250D076CFFFCFE0E0A9
:10028400E8BBE7BBE5BBE4BBE2BBE1BBE3BFE2BF6A
:10029400EFBDEEBDEDBDECBDE7BDE6BDEBBDEABD1A
:1002A400E9BDE8BDE2BDE5BDE4BDE3BDE5BFE9BF31
:1002B400EBB9E8E9EAB9E6E8E0BDE0E0E0BDE7E68D
:1002C400E9B9E0E8E8B9E0E0E0BFE0E6E7B9E4E88E
:1002D400E6B9E0E0EDB9E6BF78940895B39903C0B8
:1002E400E1E0F0E004C0B39B03C0E2E0F0E02F01E2
:1002F400E881F981E130A0E0FA0719F4E0E0E0BD1B
:1003040007C0E230A0E0FA0721F4E0E0E0BDE7E650
:10031400E9B9F8947894229608955D9BFECFE8811C
:10032400ECB921960895A991B991E991F991AE1783
:10033400BF070CF0FD010895F0E00895FA93EA93E5
:100344000895EA9300CFF8DFED93FC930895E091CC
:100354006801F09169010895E0916A01F0916B01DF
:100364000895ECDFE0DFE0937C01F0937D01E6CFBC
:10037400E0916C01F0916D010895E0916E01F091AE
:100384006F010895E0917001F09171010895E09179
:100394007201F09173010895E0917401F091750177
:1003A4000895A0917C01B0917D010895FADFEA17C8
:1003B400FB0708951A930A930895099119910895D2
:00000001FF
