:04000000D8C1FECF96
:10000400FDCFFCCFFBCFFACFF9CFF8CF48C2F6CF64
:10001400F5CFFCC1F3CFF2CFF1CFF0CFEFCFEECFDE
:10002400EDCF1027E80364000A000100001000016E
:100034001000010000001C092003D3003C003E0016
:100044007C0029002A002B002C002D002E003500F6
:100054005E0053004100420058005E00410042002F
:1000640043005A00580046004700480049004A002F
:100074004B004C000100D0073F0C520000005265B9
:100084006420203A202564200900477265656E3A91
:10009400202564200900426C75653A2025642009F6
:1000A4000057686974653A202564200D0054524154
:1000B4004345522046524F4E5420414354495645DD
:1000C400200D005452414345522046524F4E542075
:1000D400494E414354495645200D0054524143452D
:1000E40052204D4944444C452041435449564520EF
:1000F4000D00545241434552204D4944444C45203F
:10010400494E414354495645200D005452414345FC
:1001140052205245415220414354495645200D0036
:10012400545241434552205245415220494E414385
:1001340054495645200D005452414345525B4652A2
:100144004F4E545D3A2025642009205452414345C2
:10015400525B4D4944444C455D3A202564200920B6
:100164005452414345525B524541525D3A20256405
:1001740020200D00545241434552205354415420F1
:10018400414354495645200D0054524143455220A1
:100194005354415420494E414354495645200D007F
:1001A400544353333230305F544F54414C5F5355B2
:1001B4004D202564200D003D3D3D3D3D3D3D3D3DF3
:1001C4003D3D3D3D3D3D3D3D3D3D3D3D3D3D3D3D5B
:1001D4003D3D3D3D3D3D3D3D3D3D3D3D3D3D3D3D4B
:1001E4003D3D3D3D3D3D3D3D3D3D3D3D3D3D3D3D3B
:1001F4003D3D3D3D3D3D3D3D3D3D3D3D3D3D3D3D2B
:100204003D3D3D3D200D003D3D3D3D3D3D3D3D3DA4
:100214003D3D3D3D3D3D3D3D3D3D3D3D3D3D3D3D0A
:100224003D46524F4E542054435333323030204DC8
:100234004F4E49544F523D3D3D3D3D3D3D3D3D3D7D
:100244003D3D3D3D3D3D3D3D3D3D3D3D3D3D3D3DDA
:100254003D3D3D3D200D003D3D3D3D3D3D3D3D3D54
:100264003D3D3D3D3D3D3D3D3D3D3D3D3D3D3D3DBA
:100274003D3D4D4944444C45205443533332303082
:10028400204D4F4E49544F523D3D3D3D3D3D3D3D3A
:100294003D3D3D3D3D3D3D3D3D3D3D3D3D3D3D3D8A
:1002A4003D3D3D3D200D00544353333230305F54C7
:1002B40048524553484F4C44203D202564200909A9
:1002C40020544353333230305F544F54414C5F53C6
:1002D400554D202564200D003D3D3D3D3D3D3D3DBA
:1002E4003D3D20434F4E434C5553494F4E3A2057C2
:1002F40048495445203D3D3D3D3D3D3D3D3D3D3D11
:100304003D3D200D003D3D3D3D3D3D3D3D3D3D20C0
:10031400434F4E434C5553494F4E3A20424C414370
:100324004B203D3D3D3D3D3D3D3D3D3D3D3D3D2025
:100334000D003D3D3D3D3D3D3D3D3D3D20434F4E4A
:10034400434C5553494F4E3A2047524159203D3D65
:100354003D3D3D3D3D3D3D3D3D3D3D200D000100CC
:100364002D4E414E00494E46000001000200380067
:10037400020062013A00020064013C0001006601CF
:100384003E0001006801400001006A0142000100D2
:100394006C01560001006E015E000100A6017E00A2
:1003A4000200040080000100C30162030000F8940D
:1003B400EE27ECBBF1E0FBBFEBBFE5BFF8E1F1BD1D
:1003C400E1BD8DE0A2E0BB27ED938A95E9F780E0DB
:1003D40094E0A0E6ED930197E9F7EEE6F3E085916A
:1003E4009591009761F0A591B59105901590BF0185
:1003F400F00105900D920197E1F7FB01F0CFEFE5D5
:10040400EDBFE4E0EEBFC0E6D1E065C0AA93EA9395
:10041400FA93EFB7EA9327D81BB10CB1E12FEC7133
:10042400D1F4E091C001EF5FE093C00145D60083B1
:10043400A091C001A83019F4E0E0E093C001A091BC
:10044400C201AF5FA093C201A83029F4E0E0E093B9
:10045400C201689420F811D8E991EFBFF991E991AC
:10046400A99118951A93E091C201E030E1F3E0916B
:10047400C101EF5FE093C1011FD61081A091C101BA
:10048400A83019F4E0E0E093C101F894E091C201CE
:10049400E150E093C2017894E12F19910895AA9351
:1004A400BA93EA93FA93EFB7EA93A4E8B1E009D6D2
:1004B400E991EFBFF991E991B991A9911895E88172
:1004C400E066E7B985E38A95F1F7369A349BFECF67
:1004D400349AE5B1A3C407D0E3E0F0E0F8D540D006
:1004E40095D0FECFFFCFE0E0E8BBE7E0E7BBE0E07C
:1004F400E5BBE8E3E4BBE0E0E2BBE8E1E1BBE0E06C
:10050400E3BFE2BFEFBDE6D5E0E0EDBDECBDE7BD86
:10051400E6BDEBBDEABDE9BDE8BDE2BDE5BDE4BDB8
:10052400E3BDE5BFE4E0E9BFE0E0EBB9E8E9EAB93F
:10053400E6E8E0BDE0E0E0BDE7E6E9B9E0E8E8B917
:10054400E0E0E0BFE0E6E7B9E5E8E6B9E0E0EDB910
:10055400E6BF789408955D9BFECFE881ECB95EC454
:10056400E881F981309711F4C098C198B6D51197F4
:1005740011F4C098C19AB1D5129711F4C09AC198D8
:10058400ACD5139711F4C09AC19AE3C2A9D5E2E895
:10059400F0E09DD5A9D5ADD5EEE8F0E098D5AFD57E
:1005A400A8D5EAE9F0E093D5AFD5A3D5E5EAF0E024
:1005B4008ED5AFD5B3D584E04BD52AC4C298B1D576
:1005C400BCD5E0938601F0938701C0D58DD50895FD
:1005D400C29AC8D5B2D5E0938801F0938901B6D503
:1005E4008ED50895C298BED5A8D5E0938A01F0931C
:1005F4008B01ACD589D50895C29A93D59ED5E09345
:100604008C01F0938D01A2D584D508952BDFA8E940
:10061400B1E0B4D5B5D5A0919801B0919901E0911C
:100624006E01F0916F01EA17FB0769F0ACD5E09316
:100634009601F0939701E0919801F0919901E0936C
:100644009401F09395019FD5E134A0E0FA0709F0F5
:1006540045C044D39DD5A8D5ADD53CF0ABD52CF041
:10066400B1D5B5D5B7D5BBD5F9CFBCD5E0917A0115
:10067400BDD5BFD53CF0BDD52CF0C3D5A8D5C6D5C6
:10068400AED5F9CFAFD5E0917C01B0D5C4D53CF05F
:10069400C2D52CF0C8D59BD5CBD5A1D5F9CFA2D541
:1006A400E0917E01A3D5C9D53CF0C7D52CF0CDD5BA
:1006B4008ED5D0D594D5F9CF95D5E091800196D536
:1006C400CED53CF0CCD52CF0D2D581D5D5D587D597
:1006D400F9CF88D5E0919201D4D5CDC1E234A0E020
:1006E400FA0791F438D254D5E091AA01CAD5E09121
:1006F400AC01C7D5E091AE01C4D5E091B001C1D53C
:10070400E0916601BED5B7C1E334A0E0FA0771F405
:1007140022D22CD3E0916801B4D5E0916A01B1D51D
:100724004A9219DFE091B001ACD5A5C1EA35A0E049
:10073400FA07A9F42BDFE3D4A0E0B0E077D6E4D441
:10074400A2E0B0E073D6E5D4A4E0B0E06FD6E091C7
:100754008E01F0918F01A6E0B0E068D68CC1E83537
:10076400A0E0FA0711F423D386C1E634A0E0FA0727
:1007740031F4B4D260909201709093017CC1E7345B
:10078400A0E0FA0731F4AAD28090920190909301EC
:1007940072C1E834A0E0FA0731F4A0D2A09092012B
:1007A400B090930168C1E934A0E0FA0709F052C19E
:1007B400F301EA19FB0967D5A937E5E0BE0724F080
:1007C400F501E259FA4FC8C067D5A734E5E0BE0782
:1007D40024F0F501E45CFA4FBFC05ED5A531E5E035
:1007E400BE0724F0F501E65FFA4FB6C055D5A33E27
:1007F400E4E0BE0724F0F501E852FB4FADC04CD550
:10080400A13BE4E0BE0724F0F501EA55FB4FA4C088
:1008140043D5AF37E4E0BE0724F0F501EC58FB4FB5
:100824009BC03AD5AD34E4E0BE0724F0F501EA55A7
:10083400FB4F92C031D5AB31E4E0BE0724F0F501A3
:10084400E05FFB4F89C028D5A93EE3E0BE0724F052
:10085400F501E252FC4F80C01FD5A73BE3E0BE0781
:1008640024F0F501E455FC4F77C016D5A538E3E034
:10087400BE0724F0F501E658FC4F6EC00DD5A33534
:10088400E3E0BE0724F0F501E85BFC4F65C004D546
:10089400A132E3E0BE0724F0F501EA5EFC4F5CC040
:1008A400FBD4AD3BE2E0BE0724F0F501EE54FD4F6E
:1008B40053C0F2D4A935E2E0BE0724F0F501E25BAF
:1008C400FD4F4AC0E9D4A53FE1E0BE0724F0F5019D
:1008D400E651FE4F41C0E0D4A33CE1E0BE0724F062
:1008E400F501E854FE4F38C0D7D4A139E1E0BE0782
:1008F40024F0F501EA57FE4F2FC0CED4AF35E1E026
:10090400BE0724F0F501EC5AFE4F26C0CAD424F0E9
:10091400F501EE5DFE4F20C0C9D424F0F501E0518D
:10092400FF4F1AC0C8D424F0F501E254FF4F14C09D
:10093400C7D424F0F501E457FF4F0EC0C6D424F009
:10094400F501E65AFF4F08C0A7D4D3971CF0F50170
:10095400B89602C0F5017E96E0936201F0936301BC
:10096400F501E819F9098FD4A733E1E0BE0724F0B3
:10097400F401E45DFE4F69C094D424F0F401EE5D0B
:10098400FE4F63C089D4A332E1E0BE0724F0F40132
:10099400E85EFE4F5AC080D4A931E1E0BE0724F0DE
:1009A400F401E25FFE4F51C077D4AF30E1E0BE07FF
:1009B40024F0F401EC5FFE4F48C06ED4A530E1E0B2
:1009C400BE0724F0F401E650FF4F3FC06FD424F07B
:1009D400F401EF51FF4F39C05FD4A23EE0E0BE07FF
:1009E40024F0F401E853FF4F30C065D424F0F4013F
:1009F400E155FF4F2AC050D4A03BE0E0BE0724F0ED
:100A0400F401EA56FF4F21C05BD424F0F401E3580B
:100A1400FF4F1BC041D4AE37E0E0BE0724F0F40121
:100A2400EC59FF4F12C051D424F0F401E55BFF4FA1
:100A34000CC032D4AC34E0E0BE071CF0F401F296F2
:100A440004C02AD4D397F4017996E0936401F09317
:100A5400650111C0EA34A0E0FA0711F4B1D00BC06B
:100A6400EB34A0E0FA0711F4C4D005C0EC34A0E0E4
:100A7400FA0709F4DCD00895E881F981309711F57B
:100A8400E2E0EA931CDD7AD3E093AA01F093AB0190
:100A940021D4A091AA01B091AB0121D44CF0E1EB97
:100AA400F0E020D424D4E093B201F093B30108C061
:100AB400E7ECF0E017D4E0E0E093B201E093B30197
:100AC40019D447C0E130A0E0FA0701F5E1E0EA9368
:100AD400F6DCACEAB1E052D353D3A091AC01B091AF
:100AE400AD01F8D3FCD344F0EFEDF0E0FBD3E4EB3D
:100AF400F1E0A1E0B0E006C0E6EFF0E0F3D3E4EB10
:100B0400F1E0FDD3A083B183FDD323C0E230A0E0A4
:100B1400FA07F9F4E0E0EA93D2DCAEEAB1E02ED3CE
:100B24002FD3A091AE01B091AF01D4D3D8D344F068
:100B3400EFE0F1E0D7D3E6EBF1E0A1E0B0E006C0EE
:100B4400E4E2F1E0CFD3E6EBF1E0D9D3A083B183C3
:100B5400DED322960895E0D3E3D3E5D3EBE3F1E0CB
:100B6400B6D2C8D3DBD2CED3D9D2D1D3D7D28CE0AC
:100B74006FD22E96A091B201B091B301119771F08A
:100B8400E091B401F091B501319741F0E091B601E3
:100B9400F091B701E130A0E0FA0749F4E8E7F1E0A9
:100BA400A1D3A5D3E093B001F093B10108C0EDE85F
:100BB400F1E098D3E0E0E093B001E093B10108954F
:100BC40022974DD4A9D38F01ABD39F01ACD3AF01EE
:100BD400021713071CF00E831F8302C02E833F836A
:100BE400A6D34E175F0714F04E835F83CE80DF8059
:100BF4001BC0229734D490D38F0192D39F0193D3F7
:100C0400AF01201731071CF00E831F8302C02E830F
:100C14003F838DD3E417F50714F04E835F8387D3A6
:100C2400E0936001F093610121D42896089517D4CC
:100C34002091600130916101A601F901E41BF50BDB
:100C44008F010035E0E01E0724F0FA01E55BFF4F59
:100C540040C00B34E0E01E0724F0FA01EA5BFF4FCA
:100C640038C00634E0E01E0724F0FA01EF5BFF4FC2
:100C740030C00134E0E01E071CF0FA01FC9629C0E4
:100C84000C33E0E01E071CF0FA01F79622C0023391
:100C9400E0E01E071CF0FA01BD961BC00832E0E03C
:100CA4001E071CF0FA01B39614C00E31E0E01E07D3
:100CB4001CF0FA0179960DC00431E0E01E071CF027
:100CC400FA013F9606C00A30E0E01E0734F0FA014C
:100CD4003796E0936601F093670199C0C4D3EAE7BD
:100CE400F1E028D3ECE7F1E025D3EEE7F1E022D3FD
:100CF400E0E8F1E01FD301E010E00230E0E01E077D
:100D0400CCF4EED15FD21AD365D27BD21ED37ED27D
:100D14008AD2A0918A01B0918B011ED389D295D237
:100D24001ED398D2F1D10AD310D319D3A5D20F5F11
:100D34001F4FE3CF47D24ED264D268D274D278D256
:100D440084D288D2A0917A01B0917B015AD2AE0F9D
:100D5400BF1F69D2AE0FBF1F78D2FED28DD2E4EA94
:100D6400F1E0B5D184D2C5D188D30895B7DFFCD2E0
:100D74003CF0E3E0F0E02F01ECEDF2E0B3D216C07A
:100D8400F3D2A4F4FAD234F4B2D22F01E9E0F3E0BE
:100D9400A9D20CC0F2D23CF0E2E0F0E02F01E6E38D
:100DA400F3E0A0D203C0E6E0F0E02F01089557D3AA
:100DB40000916201109163012091640130916501F9
:100DC4004091660150916701E3D1EED10030E1E03A
:100DD4001E0744F00030E1E01E0724F00F5F1040CE
:100DE400FED1F8CFFFD10A93B6DBDED12030E1E0AB
:100DF4003E0744F02030E1E03E0724F02F5F30400E
:100E0400EED1F8CFEFD12A93A6DB4A93A4DB2ED3FD
:100E1400269608955D9BFECFE881ECB9219608954E
:100E2400EA81EA93F7DF59D14CD1239608952697A6
:100E340016D310E0AC85BD85E0E0F0E0A1D1EA89ED
:100E4400FB893196EA8BFB8B3197E4912E2FE030AE
:100E540009F4F8C0E12FE03031F4253211F411E047
:100E640001C094D2EEC0E130A1F4253211F48ED247
:100E7400E7C012E040E000E02D3211F401E0E1C0EF
:100E84002B3211F44BE2DDC0203211F440E2D9C020
:100E940002C0E23039F450E013E0203311F400686A
:100EA400D0C003C0E33009F0CCC0203310F02A33A3
:100EB40008F007C0AAE05A9F502DE22FE0535E0FBE
:100EC400C0C0E22FE33639F469D26BD267D2A48171
:100ED400AA936BD2B5C0E33729F46ED26FD2D7D0C0
:100EE4001E2F07C0E03749F467D268D2DAD01E2F2C
:100EF400086002600F7730E02DC0E43611F0E93667
:100F040011F4046002C0E53729F4E6E2F0E05ED2B1
:100F140015E00BC0E83511F4086003C0E83709F0A8
:100F24008FC0E0E3F0E052D214E002FF11C044D2DB
:100F340050D2AB85AA2332F4EA85FB8561D2EA87D5
:100F4400FB874DE2403011F01F5F01C00B7F02C0F0
:100F540033D23FD200FD10C0151770F407FF08C04C
:100F640002FF04C00B7F242F115001C020E301C0F5
:100F740020E20CD25150F0CF312F01FF14C0303099
:100F840089F003FF04C0D3D1259120D205C0AE81DE
:100F9400BF812D91AE83BF83F9D1503009F05150F8
:100FA4003150EDCF44C020E3C2D137D2E887F9876E
:100FB400BED132960BD2E885F985AA85BB858FD13F
:100FC40050F02F5FA885B985EA85FB85EA1BFB0BEA
:100FD400EA87FB87F0CF2A3328F003FF02C0295F9A
:100FE40001C0295D04FD19C0213320F4A885B98509
:100FF400119709F409C0531710F000FF01C011C084
:1010040020E207FF0AC020E3006102FF06C00B7F55
:101014004A93CBD1503009F05150B8D1503009F037
:1010240051503150A885B985129708F0BCCF00FF04
:1010340007C0503029F05150E0E2EA93B6D1F9CF1D
:1010440010E0FDCEAC85BD85E4D110D26496089540
:10105400FF92F82E269707D2DE011496CDD18D018A
:10106400E0E0EC83ED83EE83EF83DE011896C4D1D8
:10107400D0D12DD01A930A93E2E1F7E028D0FE01F3
:10108400389625D0D4DEF6D12896FF900895A991FC
:10109400B991EE27FF276D91662311F03196FBCFAE
:1010A4000895AA27BB27E991F9910590002011F032
:1010B4001196FBCFFD010895E150F0E0E854FE4F96
:1010C4000895ED91FD913196FE93EE930895FA9370
:1010D400EA930895E0E0EEBD0895A881B9810895EA
:1010E4006DDA76DA7FDA88CAE0918601F0918701B9
:1010F40008958AD196D184E0ABDF26960895E091D5
:101104008801F09189010895E0918A01F0918B01A1
:101114000895E0918C01F0918D01089575D181D1EC
:101124000895AB98E5E0F0E0D2DF5AD1E6E0EEBDF9
:10113400E5E0F0E0CCDF54D1CDCFF0918401E0E0E4
:10114400DF01ECB5FDB5EA0FFB1F0895E0E0F0E028
:10115400FDBDECBDE0938401E0938501EAE0F0E09D
:10116400B6DF3EC1AB9AE5E0F0E0B1DF39D1E6E0AD
:10117400EEBDE5E0F0E0ABDF33D1ACCFF0E00895B5
:10118400ED93FC930895E0919401F09195010895F5
:10119400E0916801EA93DFD9E0916A01EA93DBD92F
:1011A400E091A601EA93D7C9E0E0E093A801E093B7
:1011B400A9010895A0917A01B0917B01A030E1E0EA
:1011C400BE070895E0917A01F0917B010895EF5FE5
:1011D400F0400895E0937A01F0937B010895A8EA22
:1011E400B1E06FCFE091A801EA93B5C9EA93B3D90E
:1011F400DBCFA0917C01B0917D01A030E1E0BE077E
:101204000895E0917C01F0917D010895E0937C01C3
:10121400F0937D010895A0917E01B0917F01A030EB
:10122400E1E0BE070895E0917E01F0917F01089509
:10123400E0937E01F0937F010895A0918001B09125
:101244008101A030E1E0BE070895E0918001F091B2
:1012540081010895E0938001F09381010895A091A4
:101264009201B0919301A030E1E0BE070895E091AE
:101274009201F09193010895E0939201F093930108
:101284000895EA9368C9E093A401F093A501A0919D
:10129400A401B091A5010895A091A401B091A50164
:1012A4000895FADFAD32E1E0BE070895F5DFAB3F04
:1012B400E0E0BE070895F0DFA93CE0E0BE07089532
:1012C400EBDFA739E0E0BE070895E6DFA536E0E0EE
:1012D400BE070895E0916601F09167010895AE1785
:1012E400BF070895F4DE80E0B3DE22960895E1E0BE
:1012F400F0E00895E091AA01F091AB010895A0E017
:10130400B0E00895E091AC01F091AD010895E09151
:10131400AE01F091AF010895E0E0F0E0D8DEACCB8F
:10132400E6DFD5DEA9CBE2E0F0E0D1DEA5CBEE81AD
:10133400FF810895E4DFA083B1830895A09186011D
:10134400B0918701EA0FFB1F0895A0918801B09125
:101354008901EA0FFB1F0895EA0FFB1F0895A0916E
:101364008C01B0918D01F8CFE0916201F09163019D
:10137400A0919201B0919301B2CFE0916401F091F8
:101384006501A0919201B0919301A9CF2A93ED85B3
:10139400FE859DDEE989FA8909950895E889F98928
:1013A40008953497E88BF98B0895ED85FE858FDEDB
:1013B400E989FA8909950895F1DFF3CFA889B989F4
:1013C400149627D0EE83FF83B2DF81CEEE83FF83B2
:1013D4000895A889B98914961CD0EA87FB870895D3
:1013E400E991F991309639F080EA9FE00197F1F79D
:1013F400A8953197C9F708950024AF0DB01D08953D
:10140400F195E195F04008956F2F660F660B762FE6
:101414000895ED91FC91119708950590F491E02DB4
:1014240008957A936A93FA93EA93089507D01196EC
:10143400EF93EF2F03D0EF9111970895E19B02C032
:10144400A895FCCF9FB7F894AEBBBFBBE09A8DB311
:10145400E81719F0EDBBE29AE19A9FBF08955A93F9
:101464004A933A932A931A930A9308955D814C817F
:101474003B812A8119810881089509911991089560
:00000001FF
