:020000040800F2
:1000000040440020213C0008993C0008993C00082D
:10001000993C0008993C0008993C00080000000049
:10002000000000000000000000000000993C0008F3
:10003000993C000800000000993C0008894F000826
:10004000993C0008993C0008993C0008993C00083C
:10005000993C0008993C0008993C0008993C00082C
:10006000993C0008993C0008993C0008993C00081C
:10007000993C0008993C0008993C0008993C00080C
:10008000993C0008993C0008993C0008993C0008FC
:10009000993C0008993C0008993C0008993C0008EC
:1000A000993C0008993C0008993C0008993C0008DC
:1000B000C1260008616C0008993C0008993C0008C2
:1000C000993C0008993C0008993C0008993C0008BC
:1000D000993C0008B9290008CD2C00084D2B0108D7
:1000E000993C0008993C0008993C0008993C00089C
:1000F000993C0008993C0008993C0008993C00088C
:10010000993C0008993C000899670008993C000850
:10011000FD2E0008F5300008993C0008993C0008C5
:10012000993C0008993C0008993C0008993C00085B
:10013000993C0008993C0008993C0008993C00084B
:10014000993C0008993C0008993C0008993C00083B
:10015000993C0008993C0008993C0008F9350008D2
:10016000993C0008993C0008993C0008993C00081B
:10017000993C0008993C0008993C0008993C00080B
:10018000993C0008993C000880B500AF4FF004008E
:100190004FF0010104F000FB41F23403C2F200030E
:1001A0004FF004021A6041F23403C2F200034FF030
:1001B00000021A7141F23403C2F200034FF0000250
:1001C0009A7141F23403C2F200034FF003025A71F4
:1001D00041F23403C2F200034FF00202DA714FF42D
:1001E0000060C4F2020041F23401C2F2000104F0E6
:1001F00063FF4FF001004FF0010104F0CDFA41F22E
:100200003403C2F200034FF080021A6041F234035B
:10021000C2F200034FF000021A7141F23403C2F23D
:1002200000034FF000029A7141F23403C2F200035E
:100230004FF003025A7141F23403C2F200034FF04F
:100240000202DA714FF00000C4F2020041F2340100
:10025000C2F2000104F030FF80BD00BF80B500AFE6
:100260004FF40060C4F202004FF0040104F0CEFF2E
:1002700003461A4640F6E843C2F200031A604FF004
:100280000000C4F202004FF0800104F0BFFF0346FB
:100290001A4640F6E843C2F200035A6080BD00BF30
:1002A00098B500AFFFF7DAFF40F6E843C2F200036B
:1002B0001B68002B06D140F6E843C2F200035B68DE
:1002C000002B02D04FF0010301E04FF00003012B9F
:1002D00003D14FF0010006F07BF900F0CDFA4FF0AA
:1002E00002004FF0000100F093FA40F60C62C2F2F7
:1002F000000244F6E433C0F6030314460FCB07C4F0
:10030000237040F60C60C2F2000000F06BFA4FF070
:1003100001004FF0010100F07BFA40F60C62C2F2DE
:10032000000244F6F433C0F6030314460FCB07C4AF
:10033000238004F102044FEA1343237040F60C605B
:10034000C2F2000000F04EFA4FF004004FF002013C
:1003500000F05EFA40F6E843C2F200031B6840F684
:100360000C60C2F2000044F60441C0F603011A46D4
:100370002FF06AFC40F60C60C2F2000000F032FA86
:100380004FF004004FF0030100F042FA40F6E8435A
:10039000C2F200035B6840F60C60C2F2000044F653
:1003A0001041C0F603011A462FF04EFC40F60C60D7
:1003B000C2F2000000F016FA4FF0640004F02EFEC6
:1003C00098BD00BF80B582B000AF4FF000037B60E6
:1003D0004FF00000C4F202004FF0020104F016FFDB
:1003E0000346012B75D100E000BF4FF48050C4F2EA
:1003F00002004FF0040104F009FF0346012B13D162
:100400004FF0020006F0E4F800BF4FF48050C4F251
:1004100002004FF0040104F0F9FE0346012BF4D072
:100420007B6803F101037B604FF00000C4F202001F
:100430004FF4806104F0EAFE0346012B13D14FF024
:10044000010006F0C5F800BF4FF00000C4F2020042
:100450004FF4806104F0DAFE0346012BF4D07B6890
:1004600003F1FF337B607B68052B03DD4FF0000356
:100470007B6005E07B68002B02DA4FF005037B60B0
:100480007B68052BB0D801A252F823F0A504000820
:10049000AF040008B9040008BF040008C504000840
:1004A000CB04000812F070FC12F056FD10E005F0CD
:1004B00027F905F091F90BE0FFF7F2FE08E003F0F1
:1004C00073F905E01DF0C0FA02E003F0E9FB00BF9C
:1004D0008AE707F10807BD4680BD00BF80B500AFC1
:1004E0004FF48050C4F202004FF4806104F0BAFE71
:1004F00080BD00BF80B500AF4FF48050C4F2020051
:100500004FF4806104F0A0FE80BD00BF80B500AF55
:100510004FF48050C4F202004FF4006104F0A2FED8
:1005200080BD00BF80B500AF4FF48050C4F2020020
:100530004FF4006104F088FE80BD00BF80B500AFBD
:100540004FF48050C4F202004FF4805104F08AFE50
:1005500080BD00BF80B500AF4FF48050C4F20200F0
:100560004FF4805104F070FE80BD00BF80B500AF35
:100570004FF48050C4F202004FF4005104F072FEB8
:1005800080BD00BF80B500AF4FF48050C4F20200C0
:100590004FF4005104F058FE80BD00BF80B500AF9D
:1005A0004FF48050C4F202004FF4804104F05AFE30
:1005B00080BD00BF80B500AF4FF48050C4F2020090
:1005C0004FF4804104F040FE80BD00BF80B500AF15
:1005D0004FF48050C4F202004FF4004104F042FE98
:1005E00080BD00BF80B500AF4FF48050C4F2020060
:1005F0004FF4004104F028FE80BD00BF80B582B0FA
:1006000000AF0346FB71FFF78DFFFB7903F0010399
:10061000DBB2002B02D0FFF79DFF01E0FFF78EFF5A
:10062000FB7903F00203002B02D0FFF7ABFF01E0E0
:10063000FFF79CFFFB7903F00403002B02D0FFF7C8
:10064000B9FF01E0FFF7AAFFFB7903F00803002BD5
:1006500002D0FFF7C7FF01E0FFF7B8FFFFF756FF33
:1006600007F10807BD4680BD80B582B000AF0346E4
:10067000FB71FB794FEA1313DBB21846FFF7BEFF9D
:10068000FB7903F00F03DBB21846FFF7B7FF4FF01B
:10069000460004F097FC07F10807BD4680BD00BF87
:1006A00080B582B000AF0346FB71FFF717FFFB79FF
:1006B0001846FFF7A3FF07F10807BD4680BD00BF3E
:1006C00080B582B000AF0346FB71FFF713FFFB79E3
:1006D0001846FFF7C9FF07F10807BD4680BD00BFF8
:1006E00080B582B000AF0346FB71FFF7F7FEFB79E0
:1006F0001846FFF7B9FFFB79012B02D0FB79022BDB
:1007000003D140F6340004F05DFC07F10807BD4654
:1007100080BD00BF80B500AF4FF010004FF0010169
:1007200004F03AF841F23403C2F200034FF47C4281
:100730001A6041F23403C2F200034FF001021A7151
:1007400041F23403C2F200034FF000029A7141F209
:100750003403C2F200034FF003025A7141F2340332
:10076000C2F200034FF00102DA714FF48050C4F27C
:10077000020041F23401C2F2000104F09DFC4FF08E
:10078000C70004F01FFC4FF00300FFF789FF4FF094
:100790000300FFF785FF4FF0C70004F013FC4FF094
:1007A0000300FFF77DFF4FF00200FFF779FF4FF0E6
:1007B000C70004F007FC4FF02800FFF791FF4FF04F
:1007C000C70004F0FFFB80BD80B582B000AF0346D8
:1007D000FB71FB791846FFF773FF07F10807BD4669
:1007E00080BD00BF80B582B000AF786008E07B6854
:1007F0001B787A6802F101027A601846FFF7E4FF7D
:100800007B681B78002BF2D107F10807BD4680BD3D
:1008100080B582B000AF02460B46FA71BB71BB795E
:1008200003F00103DBB2002B0ED0BB794FEA530378
:10083000DBB203F10403DBB24FEA0313DBB2DBB23A
:1008400063F07F03DBB20AE0BB794FEA5303DBB20C
:100850004FEA0313DBB2DBB263F07F03DBB2F9795B
:100860001A460B461343DBB2DBB21846FFF738FFDC
:1008700007F10807BD4680BD80B500AF4FF001000D
:10088000FFF72EFF80BD00BF80B500AF4FF00C001A
:10089000FFF726FF4FF0B30004F094FBFFF7ECFFE7
:1008A00080BD00BF80B500AF4FF004004FF00101E4
:1008B00003F072FF41F23403C2F200034FF008026A
:1008C0001A6041F23403C2F200034FF003021A71BE
:1008D00041F23403C2F200034FF00002DA714FF428
:1008E0000060C4F2020041F23401C2F2000104F0DF
:1008F000E3FB4FF480604FF0010103F0A5FF41F2EC
:100900005403C2F200034FF000021A6041F2540394
:10091000C2F200034FF000025A6041F25403C2F2E7
:1009200000034FF000029A6041F25403C2F2000348
:100930004FF00002DA6041F25400C2F2000004F00D
:10094000D9F840F67863C2F200034FF000721A60E3
:1009500040F67863C2F200034FF000021A7140F6CD
:100960007863C2F200034FF001025A7140F67863D7
:10097000C2F200034FF000029A6040F67863C2F2C0
:1009800000034FF00002DA6040F67863C2F2000321
:100990004FF000021A6140F67863C2F200034FF094
:1009A00001021A754FF40850C4F2010040F6786154
:1009B000C2F2000104F042F84FF40850C4F2010002
:1009C0004FF0010104F0C4F84FF40850C4F20100E4
:1009D0004FF0010104F0C6F94FF40850C4F20100D1
:1009E0004FF00D014FF001024FF0000304F0CCF87E
:1009F00080BD00BF80B582B000AF4FF40850C4F294
:100A0000010004F09FF94FF40850C4F2010004F013
:100A1000C5F94FF40850C4F2010004F0BFF90346D1
:100A2000FB804FF48050C4F2010044F61C41C0F634
:100A3000030102F059FEFB884FF48050C4F201001C
:100A400044F64441C0F603011A4602F04DFEFB880D
:100A50000F2B07D841F23043C2F200034FF00102DE
:100A60001A8049E0FB88312B0AD9FB883C2B07D838
:100A700041F23043C2F200034FF002021A803BE021
:100A8000FB88632B0AD9FB88782B07D841F23043C7
:100A9000C2F200034FF003021A802DE0FB88952B71
:100AA0000AD9FB88AA2B07D841F23043C2F20003CF
:100AB0004FF004021A801FE0FB88D12B0AD9FB8873
:100AC000E62B07D841F23043C2F200034FF0050293
:100AD0001A8011E0FB88F92B07D941F23043C2F2AA
:100AE00000034FF006021A8006E041F23043C2F2E2
:100AF00000034FF000021A8041F23043C2F20003BB
:100B00001B88002B10D141F23043C2F200031B8836
:100B10004FF48050C4F2010044F66041C0F6030176
:100B20001A4602F0E1FD0FE041F23043C2F2000349
:100B30001B884FF48050C4F2010044F67841C0F69F
:100B400003011A4602F0D0FD07F10807BD4680BD3B
:100B5000B0B500AFFFF790FE4FF003004FF000017B
:100B6000FFF756FE40F60C63C2F2000344F68842DB
:100B7000C0F6030207CA03C31A8003F102034FEA57
:100B800012421A7040F60C60C2F20000FFF72AFE13
:100B90004FF005004FF00101FFF73AFE41F23043FC
:100BA000C2F200031B8840F60C60C2F2000044F65B
:100BB0009441C0F603011A462FF046F840F60C6047
:100BC000C2F20000FFF70EFE41F23043C2F2000312
:100BD0001B8803F1FF33052B00F2B48001A252F809
:100BE00023F000BFFD0B0008330C00086F0C000859
:100BF000A10C0008D70C0008130D00084FF00000EE
:100C00004FF00201FFF704FE40F60C62C2F2000250
:100C100044F69C43C0F6030314461D460FCD0FC493
:100C20002B68237040F60C60C2F20000FFF7DAFD7B
:100C300088E04FF001004FF00201FFF7E9FD40F6B8
:100C40000C62C2F2000244F6B043C0F6030314463D
:100C50000FCB07C4238004F102044FEA134323702F
:100C600040F60C60C2F20000FFF7BCFD6AE04FF0F6
:100C700002004FF00201FFF7CBFD40F60C62C2F21A
:100C8000000244F6C043C0F6030314460FCB07C46A
:100C9000237040F60C60C2F20000FFF7A3FD51E0A4
:100CA0004FF000004FF00201FFF7B2FD40F60C627A
:100CB000C2F2000244F6D043C0F6030314461D46B8
:100CC0000FCD0FC42B68237040F60C60C2F20000F9
:100CD000FFF788FD36E04FF001004FF00201FFF70B
:100CE00097FD40F60C62C2F2000244F6E443C0F6FF
:100CF000030314460FCB07C4238004F102044FEA18
:100D00001343237040F60C60C2F20000FFF76AFD47
:100D100018E04FF001004FF00201FFF779FD40F6B7
:100D20000C62C2F2000244F6F443C0F60303144618
:100D30000FCB07C4237040F60C60C2F20000FFF72F
:100D400051FD00BF4FF002004FF00301FFF760FDBF
:100D500040F60C62C2F2000244F60453C0F60303EC
:100D600014460FCB07C4237040F60C60C2F200009B
:100D7000FFF738FD4FF0640004F050F9B0BD00BF3C
:100D8000B0B586B000AF40F60853C2F200035A680F
:100D900013464FEA03239A1A40F60853C2F200039F
:100DA0009B68D3187B6140F60853C2F20003DA68EF
:100DB00013464FEA03239A1A40F60853C2F200037F
:100DC0001B69D3183B6140F60853C2F200035A690D
:100DD00013464FEA03239A1A40F60853C2F200035F
:100DE0009B69D318FB6040F60853C2F20003DA692E
:100DF00013464FEA03239A1A40F60853C2F200033F
:100E00001B6AD318BB6040F60853C2F200035A6A4B
:100E100013464FEA03239A1A40F60853C2F200031E
:100E20009B6AD3187B60FFF727FD4FF000004FF05F
:100E30000001FFF7EDFC40F60C62C2F2000244F63E
:100E40005453C0F6030314461D460FCD0FC42B6840
:100E5000237040F60C60C2F20000FFF7C3FC4FF0B5
:100E600000004FF00101FFF7D3FC40F60C60C2F226
:100E7000000044F66851C0F603017A692EF0E4FEE2
:100E800040F60C60C2F20000FFF7ACFC4FF000002F
:100E90004FF00201FFF7BCFC40F60C60C2F200000C
:100EA00044F67051C0F603013A692EF0CDFE40F6CB
:100EB0000C60C2F20000FFF795FC4FF000004FF00D
:100EC0000301FFF7A5FC40F60C60C2F2000044F6F7
:100ED0007851C0F60301FA682EF0B6FE40F60C60B9
:100EE000C2F20000FFF77EFC4FF007004FF0010157
:100EF000FFF78EFC40F60C60C2F2000044F6805111
:100F0000C0F60301BA682EF09FFE40F60C60C2F2F4
:100F10000000FFF767FC4FF007004FF00201FFF7FA
:100F200077FC40F60C60C2F2000044F68851C0F62F
:100F300003017A682EF088FE40F60C60C2F20000D1
:100F4000FFF750FC4FF0640004F068F807F1180751
:100F5000BD46B0BD90B585B000AF40F60853C2F2B3
:100F600000035B68FB6040F60853C2F200039B6815
:100F7000BB6040F60853C2F20003DB687B6040F6BA
:100F80000853C2F200031A6940F65453C2F2000338
:100F90001A6040F60853C2F200035B693B60FFF73A
:100FA0006BFC4FF001004FF00001FFF731FC40F601
:100FB0000C62C2F2000244F69053C0F603031446DA
:100FC0000FCB07C4238004F102044FEA13432370BC
:100FD00040F60C60C2F20000FFF704FC4FF0000086
:100FE0004FF00101FFF714FC40F60C60C2F2000064
:100FF00044F6A051C0F60301FA682EF025FE40F633
:101000000C60C2F20000FFF7EDFB4FF000004FF064
:101010000201FFF7FDFB40F60C60C2F2000044F64F
:10102000A851C0F60301BA682EF00EFE40F60C601F
:10103000C2F20000FFF7D6FB4FF000004FF00301B3
:10104000FFF7E6FB40F60C60C2F2000044F6685180
:10105000C0F603017A682EF0F7FD40F60C60C2F28C
:101060000000FFF7BFFB4FF006004FF00201FFF753
:10107000CFFB40F65453C2F200031B6840F60C60ED
:10108000C2F2000044F6B051C0F603011A462EF039
:10109000DBFD40F60C60C2F20000FFF7A3FB4FF04F
:1010A00006004FF00301FFF7B3FB40F60C60C2F2FD
:1010B000000044F6BC51C0F603013A682EF0C4FDAE
:1010C00040F60C60C2F20000FFF78CFB4FF06400AA
:1010D00003F0A4FF07F11407BD4690BD98B500AF1B
:1010E000FFF7CAFB4FF001004FF00001FFF790FB44
:1010F00040F60C62C2F2000244F6C453C0F6030389
:1011000014460FCB07C4238004F102044FEA1343B3
:10111000237040F60C60C2F20000FFF763FB4FF053
:1011200001004FF00101FFF773FB40F60C62C2F2C1
:10113000000244F6D453C0F6030314460FCB07C491
:10114000238004F102044FEA1343237040F60C603D
:10115000C2F20000FFF746FB4FF000004FF0020123
:10116000FFF756FB40F60853C2F200031B6840F637
:101170000C60C2F2000044F6E451C0F603011A46C6
:101180002EF062FD40F60C60C2F20000FFF72AFB71
:101190004FF000004FF00301FFF73AFB40F6085311
:1011A000C2F200035B6840F60C60C2F2000044F635
:1011B000F051C0F603011A462EF046FD40F60C60D1
:1011C000C2F20000FFF70EFB4FF0640003F026FFB1
:1011D00098BD00BF98B500AFFFF74EFB4FF0010080
:1011E0004FF00001FFF714FB40F60C62C2F2000260
:1011F00044F64463C0F6030393E8030082E8030067
:1012000040F60C60C2F20000FFF7ECFA4FF0040069
:101210004FF00101FFF7FCFA40F60C62C2F2000247
:1012200044F65863C0F60303144693E8070084E8C5
:10123000070040F60C60C2F20000FFF7D3FA4FF04F
:1012400000004FF00201FFF7E3FA40F60C62C2F231
:10125000000244F6DC63C0F60303144693E807007B
:1012600084E8070040F60C60C2F20000FFF7BAFA0B
:101270004FF005004FF00301FFF7CAFA40F60C6289
:10128000C2F2000244F6E863C0F60303144693E892
:10129000070084E8070040F60C60C2F20000FFF788
:1012A000A1FA4FF0640003F0B9FE4FF00000C4F261
:1012B00002004FF0020103F0A9FF0346012B40F0AA
:1012C000B5814FF0010005F083F94FF47A7003F017
:1012D000A5FE12E040F20C23C2F200031B684FF49B
:1012E000A040C4F20000194602F00AFA41F231634C
:1012F000C0F600034FF0010098474FF00000C4F221
:1013000002004FF0020103F081FF0346002BE1D001
:101310004FF00000C4F202004FF0020103F076FF2C
:101320000346012B48D14FF0020005F051F945F278
:101330009033C0F603031B684FF4A040C4F20000D2
:10134000194602F0DDF9FFF797FA4FF000004FF071
:101350000001FFF75DFA40F60C63C2F2000344F6A9
:10136000F462C0F6030207CA03C31A8003F1020342
:101370004FEA12421A7040F60C60C2F20000FFF70A
:1013800031FA4FF007004FF00101FFF741FA40F644
:101390000C63C2F2000344F60072C0F6030207CAEF
:1013A00003C31A8040F60C60C2F20000FFF71AFA7D
:1013B0004FF0640003F032FE4FF47A7003F02EFE1B
:1013C00012E040F20C23C2F200031B684FF4A0406D
:1013D000C4F20000194602F093F941F23163C0F6FD
:1013E00000034FF0020098474FF00000C4F20200E3
:1013F0004FF0020103F00AFF0346002BE1D04FF04B
:101400000000C4F202004FF0020103F0FFFE0346A9
:10141000012B43D14FF0020005F0DAF845F2943386
:10142000C0F603031B684FF4A040C4F20000194645
:1014300002F066F9FFF720FA4FF000004FF00001CC
:10144000FFF7E6F940F60C63C2F2000344F60C72B3
:10145000C0F6030207CA03C31A8040F60C60C2F24A
:101460000000FFF7BFF94FF007004FF00101FFF751
:10147000CFF940F60C63C2F2000344F60072C0F6E6
:10148000030207CA03C31A8040F60C60C2F20000D0
:10149000FFF7A8F94FF0640003F0C0FD4FF47A7035
:1014A00003F0BCFD12E040F20C23C2F200031B6803
:1014B0004FF4A040C4F20000194602F021F941F2B5
:1014C0003163C0F600034FF0030098474FF000006F
:1014D000C4F202004FF0020103F098FE0346002B15
:1014E000E1D04FF00000C4F202004FF0020103F01F
:1014F0008DFE0346012B48D14FF0020005F068F83D
:1015000045F28C33C0F603031B684FF4A040C4F2CD
:101510000000194602F0F4F8FFF7AEF94FF00000B2
:101520004FF00001FFF774F940F60C63C2F20003BC
:1015300044F61872C0F6030207CA03C31A8003F107
:1015400002034FEA12421A7040F60C60C2F2000029
:10155000FFF748F94FF007004FF00101FFF758F986
:1015600040F60C63C2F2000344F60072C0F60302B8
:1015700007CA03C31A8040F60C60C2F20000FFF7EE
:1015800031F94FF0640003F049FD4FF47A7003F035
:1015900045FD4FF0020005F01BF84FF0020005F08A
:1015A00017F845F29833C0F603031B684FF4A040C8
:1015B000C4F20000194602F0A3F8FFF75DF94FF0FE
:1015C00000004FF00001FFF723F940F60C62C2F271
:1015D000000244F62473C0F6030314460FCB07C47D
:1015E000237040F60C60C2F20000FFF7FBF84FF0EA
:1015F00007004FF00101FFF70BF940F60C63C2F250
:10160000000344F60072C0F6030207CA03C31A803F
:1016100040F60C60C2F20000FFF7E4F84FF06400FF
:1016200003F0FCFC4FF47A7003F0F8FC98BD00BFA7
:1016300090B589B000AF786040F60853C2F200035D
:101640005A6813464FEA03239A1A40F60853C2F227
:1016500000039B68D318FB6140F60853C2F20003F5
:10166000DA6813464FEA03239A1A40F60853C2F287
:1016700000031B69D318BB6140F60853C2F2000394
:101680005A6913464FEA03239A1A40F60853C2F2E6
:1016900000039B69D3187B6140F60853C2F2000334
:1016A000DA6913464FEA03239A1A40F60853C2F246
:1016B00000031B6AD3183B6140F60853C2F20003D3
:1016C0005A6A13464FEA03239A1A40F60853C2F2A5
:1016D00000039B6AD318FB60FFF7CEF87B68022BF0
:1016E0001CD0032B38D0012B4FD14FF000004FF00E
:1016F0000001FFF78DF840F60C62C2F2000244F6DA
:101700003473C0F6030314460FCB84E80F0040F691
:101710000C60C2F20000FFF765F836E04FF0000001
:101720004FF00001FFF774F840F60C62C2F20002BD
:1017300044F64473C0F6030314460FCB07C423805A
:1017400004F102044FEA1343237040F60C60C2F226
:101750000000FFF747F818E04FF000004FF00001DD
:10176000FFF756F840F60C62C2F2000244F65473DA
:10177000C0F6030314460FCB84E80F0040F60C605C
:10178000C2F20000FFF72EF800BF4FF000004FF04C
:101790000101FFF73DF840F60C60C2F2000044F68C
:1017A0006851C0F60301FA692EF04EFA40F60C605B
:1017B000C2F20000FFF716F84FF000004FF00201F0
:1017C000FFF726F840F60C60C2F2000044F67051B4
:1017D000C0F60301BA692EF037FA40F60C60C2F287
:1017E0000000FEF7FFFF4FF000004FF00301FFF78E
:1017F0000FF840F60C60C2F2000044F67851C0F6D3
:1018000003017A692EF020FA40F60C60C2F2000063
:10181000FEF7E8FF4FF007004FF00101FEF7F8FF79
:1018200040F60C60C2F2000044F68051C0F603019D
:101830003A692EF009FA40F60C60C2F20000FEF799
:10184000D1FF4FF007004FF00201FEF7E1FF40F635
:101850000C60C2F2000044F68851C0F60301FA6839
:101860002EF0F2F940F60C60C2F20000FEF7BAFF6B
:101870004FF0640003F0D2FB07F12407BD4690BD92
:1018800098B500AFFEF7F8FF4FF001004FF00001F0
:10189000FEF7BEFF40F60C63C2F2000344F664722A
:1018A000C0F6030292E80300186003F104031980F4
:1018B00003F102034FEA11421A7040F60C60C2F2C3
:1018C0000000FEF78FFF4FF004004FF00101FEF71C
:1018D0009FFF40F60C62C2F2000244F65863C0F665
:1018E0000303144693E8070084E8070040F60C6001
:1018F000C2F20000FEF776FF4FF000004FF0020149
:10190000FEF786FF40F60C62C2F2000244F6DC638A
:10191000C0F60303144693E8070084E8070040F686
:101920000C60C2F20000FEF75DFF4FF005004FF0C3
:101930000301FEF76DFF40F60C62C2F2000244F6AE
:10194000E863C0F60303144693E8070084E8070041
:1019500040F60C60C2F20000FEF744FF4FF0640056
:1019600003F05CFB4FF00000C4F202004FF00201F4
:1019700003F04CFC0346012B40F043814FF0010083
:1019800004F026FE4FF47A7003F048FB12E040F2B8
:101990001023C2F200031B684FF4A040C4F2000001
:1019A000194601F0ADFE41F60543C0F600034FF0C5
:1019B000010098474FF00000C4F202004FF002010E
:1019C00003F024FC0346002BE1D04FF00000C4F2EA
:1019D00002004FF0020103F019FC0346012B47D12E
:1019E00045F2A433C0F603031B684FF4A040C4F2D1
:1019F0000000194601F084FE4FF0020004F0E8FDFB
:101A00004FF4FA7003F00AFBFEF736FF4FF00000C8
:101A10004FF00001FEF7FCFE40F60C63C2F200033B
:101A200044F60C72C0F6030207CA03C31A8040F6DC
:101A30000C60C2F20000FEF7D5FE4FF007004FF039
:101A40000101FEF7E5FE40F60C63C2F2000344F626
:101A50000072C0F6030207CA03C31A8040F60C6086
:101A6000C2F20000FEF7BEFE4FF0640003F0D6FAAB
:101A70004FF47A7003F0D2FA12E040F21023C2F26F
:101A800000031B684FF4A040C4F20000194601F0A7
:101A900037FE41F60543C0F600034FF002009847B9
:101AA0004FF00000C4F202004FF0020103F0AEFB61
:101AB0000346002BE1D04FF00000C4F202004FF0CB
:101AC000020103F0A3FB0346012B48D145F2A833E2
:101AD000C0F603031B684FF4A040C4F2000019468F
:101AE00001F00EFE4FF0020004F072FDFEF7C4FE9E
:101AF0004FF000004FF00001FEF78AFE40F60C6345
:101B0000C2F2000344F61872C0F6030207CA03C308
:101B10001A8003F102034FEA12421A7040F60C6079
:101B2000C2F20000FEF75EFE4FF007004FF0010129
:101B3000FEF76EFE40F60C63C2F2000344F600723C
:101B4000C0F6030207CA03C31A8040F60C60C2F253
:101B50000000FEF747FE4FF0640003F05FFA4FF419
:101B60007A7003F05BFA4FF0020004F031FD4FF0A1
:101B7000020004F02DFD45F2AC33C0F603031B68F0
:101B80004FF4A040C4F20000194601F0B9FDFEF781
:101B900073FE4FF000004FF00001FEF739FE40F6F3
:101BA0000C62C2F2000244F66C73C0F603031446E2
:101BB00093E8070084E8070040F60C60C2F20000DA
:101BC000FEF710FE4FF007004FF00101FEF720FE78
:101BD00040F60C63C2F2000344F60072C0F6030242
:101BE00007CA03C31A8040F60C60C2F20000FEF779
:101BF000F9FD4FF0640003F011FA4FF47A7003F02E
:101C00000DFA98BD90B587B000AF786040F60853E4
:101C1000C2F200035B687B6140F60853C2F2000326
:101C20009B683B6140F60853C2F20003DB68FB602F
:101C300040F60853C2F200031A6940F65453C2F248
:101C400000031A6040F60853C2F200035B69BB60F0
:101C5000FEF712FE7B68012B02D0022B1ED036E06D
:101C60004FF000004FF00001FEF7D2FD40F60C628D
:101C7000C2F2000244F64473C0F6030314460FCBCD
:101C800007C4238004F102044FEA1343237040F693
:101C90000C60C2F20000FEF7A5FD18E04FF0000056
:101CA0004FF00001FEF7B4FD40F60C62C2F20002F4
:101CB00044F65473C0F6030314460FCB84E80F00B8
:101CC00040F60C60C2F20000FEF78CFD00BF4FF042
:101CD00000004FF00101FEF79BFD40F60C60C2F2E0
:101CE000000044F6A051C0F603017A692DF0ACFF64
:101CF00040F60C60C2F20000FEF774FD4FF00000E9
:101D00004FF00201FEF784FD40F60C60C2F20000C5
:101D100044F6A851C0F603013A692DF095FF40F64C
:101D20000C60C2F20000FEF75DFD4FF000004FF0C6
:101D30000301FEF76DFD40F60C60C2F2000044F6B0
:101D40006851C0F60301FA682DF07EFF40F60C6082
:101D5000C2F20000FEF746FD4FF006004FF0020110
:101D6000FEF756FD40F65453C2F200031B6840F6DE
:101D70000C60C2F2000044F6B051C0F603011A46EE
:101D80002DF062FF40F60C60C2F20000FEF72AFD63
:101D90004FF006004FF00301FEF73AFD40F60C60ED
:101DA000C2F2000044F6BC51C0F60301BA682DF03F
:101DB0004BFF40F60C60C2F20000FEF713FD4FF03F
:101DC000640003F02BF907F11C07BD4690BD00BF6E
:101DD00090B583B000AF4FF000037B607EE0FEF76C
:101DE0004BFD4FF003004FF00001FEF711FD40F6F0
:101DF0000C63C2F2000344F67462C0F6030207CA21
:101E000003C31A8003F102034FEA12421A7040F62C
:101E10000C60C2F20000FEF7E5FC4FF001004FF04D
:101E20000101FEF7F5FC40F60C62C2F2000244F636
:101E30007873C0F6030314460FCB07C4238004F164
:101E400002044FEA1343237040F60C60C2F2000014
:101E5000FEF7C8FC4FF003004FF00201FEF7D8FC7C
:101E600040F60C63C2F2000344F68062C0F603023F
:101E700007CA03C31A8003F102034FEA12421A7021
:101E800040F60C60C2F20000FEF7ACFC4FF002001E
:101E90004FF00301FEF7BCFC40F60C62C2F20002F8
:101EA00044F68C63C0F6030314460FCB07C42370BB
:101EB00040F60C60C2F20000FEF794FC40F20823EA
:101EC000C2F200031B684FF4A040C4F200001946A0
:101ED00001F016FC4FF0640003F0A0F84FF0000092
:101EE000C4F202004FF0020103F090F903461C46D1
:101EF0004FF48050C4F202004FF0040103F086F961
:101F000003462343DCB24FF00000C4F202004FF45A
:101F1000806103F07BF903462343DBB2002B3FF4DF
:101F20005EAF4FF00000C4F202004FF0020103F078
:101F30006DF90346012B40F0C6804FF0020004F01B
:101F400047FB00E000BF4FF48050C4F202004FF0A6
:101F5000040103F05BF90346012B13D14FF002009B
:101F600004F036FB00BF4FF48050C4F202004FF083
:101F7000040103F04BF90346012BF4D07B6803F115
:101F800001037B604FF00000C4F202004FF4806157
:101F900003F03CF90346012B13D14FF0010004F08C
:101FA00017FB00BF4FF00000C4F202004FF4806145
:101FB00003F02CF90346012BF4D07B6803F1FF33C7
:101FC0007B607B68052B03DD4FF000037B6005E041
:101FD0007B68002B02DA4FF005037B607B68052BE2
:101FE000B0D801A252F823F0012000081F200008F9
:101FF0007B20000899200008B7200008BD200008B9
:1020000040F21423C2F200031B684FF4A040C4F254
:102010000000194601F074FBFFF760F852E040F24F
:102020000C23C2F200031B684FF4A040C4F200006E
:10203000194601F065FBFEF7A3FE4FF00000C4F265
:1020400002004FF0020103F0E1F80346012B38D102
:102050004FF0020004F0BCFA4FF0020004F0B8FAAE
:1020600040F21823C2F200031B684FF4A040C4F2F0
:102070000000194601F044FB23E040F21023C2F2B5
:1020800000031B684FF4A040C4F20000194601F0A1
:1020900037FBFEF75FFF15E040F21C23C2F200039E
:1020A0001B684FF4A040C4F20000194601F028FB61
:1020B00000F06EF806E0FFF78DF803E0FFF7E0FBB5
:1020C00000E000BF3EE74FF48050C4F202004FF042
:1020D000040103F09BF80346012B25D1FEF7CCFB4E
:1020E0004FF000004FF00001FEF792FB40F60C634A
:1020F000C2F2000344F6CC62C0F6030292E8030089
:10210000186003F10403198003F102034FEA11423E
:102110001A7040F60C60C2F20000FEF763FB4FF04D
:10212000640002F07BFF2FE04FF00000C4F20200D9
:102130004FF4806103F06AF80346012B24D1FEF7C7
:102140009BFB4FF000004FF00001FEF761FB40F6F3
:102150000C63C2F2000344F6D462C0F6030292E8B4
:102160000300186003F10403198003F102034FEA2E
:1021700011421A7040F60C60C2F20000FEF732FB0A
:102180004FF0640002F04AFF07F10C07BD4690BD16
:1021900080B584B000AF40F60853C2F200035A681D
:1021A00013464FEA03239A1A40F60853C2F200037B
:1021B0009B68D318FB6040F60853C2F20003DA684C
:1021C00013464FEA03239A1A40F60853C2F200035B
:1021D0001B69D318BB6040F60853C2F200035B6969
:1021E0007B60FEF749FB4FF000004FF00001FEF767
:1021F0000FFB40F60C63C2F2000344F68872C0F68F
:10220000030207CA03C31A8040F60C60C2F2000042
:10221000FEF7E8FA4FF000004FF00101FEF7F8FA80
:1022200040F60C60C2F2000044F69471C0F603015F
:10223000FA682DF009FD40F60C60C2F20000FEF7CE
:10224000D1FA4FF000004FF00201FEF7E1FA40F63C
:102250000C60C2F2000044F6A471C0F60301BA6833
:102260002DF0F2FC40F60C60C2F20000FEF7BAFA64
:102270004FF000004FF00301FEF7CAFA40F60C6081
:10228000C2F2000044F6B471C0F603017A682DF082
:10229000DBFC40F60C60C2F20000FEF7A3FA4FF43C
:1022A0008050C4F2010044F6C471C0F6030101F08D
:1022B0001BFA4FF48050C4F2010044F6FC71C0F6E2
:1022C0000301FA6801F010FA4FF48050C4F20100E3
:1022D00045F20C01C0F60301BA6801F005FA4FF4AB
:1022E0008050C4F2010045F21C01C0F603017A6877
:1022F00001F0FAF94FF0640002F090FE07F11007C8
:10230000BD4680BD80B58AB000AF786039604FF0BF
:1023100000037B624FF000033B624FF00003FB6160
:102320004FF00003BB617B681B8A9BB27B627B6AB8
:1023300023F440537B623B68DB887A6A13437B62F9
:102340007B6A9AB27B681A827B689B899BB27B62AC
:102350007B6A23F4B05323F00C037B623B689A88BA
:102360003B681B8913439AB23B685B8913439BB25A
:102370007A6A13437B627B6A9AB27B689A817B6834
:102380009B8A9BB27B627B6A23F440737B623B68CF
:102390009B897A6A13437B627B6A9AB27B689A82D2
:1023A00007F10803184602F00FF97A684FF48053DA
:1023B000C4F201039A4206D07A684FF4A053C4F2E3
:1023C00001039A4202D17B693B6201E03B693B62B7
:1023D0007B689B899BB29BB21BB2002B0FDA3A6AD7
:1023E00013464FEA83039B184FEA83029A183B680F
:1023F0001B684FEA4303B2FBF3F3FB610EE03A6A5A
:1024000013464FEA83039B184FEA83029A183B68EE
:102410001B684FEA8303B2FBF3F3FB61FA6948F2EE
:102420001F53C5F2EB13A3FB02134FEA53134FEAFA
:1024300003137B627B6A4FEA13134FF0640202FBC3
:1024400003F3FA69D31ABB617B689B899BB29BB289
:102450001BB2002B12DABB694FEAC30303F132024D
:1024600048F21F53C5F2EB13A3FB02134FEA5313B9
:1024700003F007037A6A13437B6211E0BB694FEAFA
:10248000031303F1320248F21F53C5F2EB13A3FB0F
:1024900002134FEA531303F00F037A6A13437B626C
:1024A0007B6A9AB27B681A8107F12807BD4680BD16
:1024B00080B483B000AF78600B46FB70FB78002BD4
:1024C00008D07B689B899BB243F400539AB27B6827
:1024D0009A8107E07B689B899BB223F400539AB2F0
:1024E0007B689A8107F10C07BD4680BC704700BF2E
:1024F00080B483B000AF78600B467B807B884FEA66
:10250000C3534FEAD3539AB27B689A8007F10C0702
:10251000BD4680BC704700BF80B487B000AF786014
:1025200013460A467A807B704FF000033B614FF000
:102530000003FB604FF00003BB604FF000037B61C2
:102540007B687B617B88DBB24FEA5313DBB23B6174
:102550007B8803F01F03FB60FB684FF0010202FA67
:1025600003F3BB603B69012B04D17B6903F10C03CE
:102570007B610BE03B69022B04D17B6903F1100303
:102580007B6103E07B6903F114037B617B78002BA3
:1025900006D07B697A691168BA680A431A6007E055
:1025A0007B697A691168BA686FEA02020A401A60A8
:1025B00007F11C07BD4680BC704700BF80B485B0E2
:1025C00000AF78600B467B804FF00003FB737B68A5
:1025D0001B889AB27B8813409BB2002B03D04FF02C
:1025E0000103FB7302E04FF00003FB73FB7B184613
:1025F00007F11407BD4680BC704700BF80B487B0A8
:1026000000AF78600B467B804FF00003FB604FF01B
:1026100000037B614FF00003BB604FF00003FB74CD
:102620007B88DBB24FEA5313DBB2BB607B8803F0DD
:102630001F037B617B694FF0010202FA03F37B61A8
:10264000BB68012B06D17B689B899BB27A691340DA
:102650007B610FE0BB68022B06D17B681B8A9BB2B3
:102660007A6913407B6105E07B689B8A9BB27A693B
:1026700013407B617B884FEA13239BB2FB60FB68AE
:102680004FF0010202FA03F3FB607B681B889BB2E8
:10269000FA681340FB607B69002B06D0FB68002BB7
:1026A00003D04FF00103FB7402E04FF00003FB7412
:1026B000FB7C184607F11C07BD4680BC704700BF75
:1026C00080B500AF4FF080404FF001012AF058FD77
:1026D0000346002B6CD041F2CC03C2F200031B680E
:1026E00003F1010241F2CC03C2F200031A6041F28D
:1026F000CC03C2F200031B68012B06DD41F2CC03C0
:10270000C2F200034FF000021A604FF080404FF019
:1027100001012AF065FD41F2CC03C2F200031B68FF
:10272000012B0CD0022B13D0002B1AD14FF4805068
:10273000C4F202004FF0080102F086FD11E04FF4F0
:102740000060C4F202004FF4005102F07DFD08E089
:102750004FF44060C4F202004FF0400102F074FDFB
:1027600000BF41F2CC03C2F200031B68022B06DD5E
:1027700041F2CC03C2F200034FF000021A604FF0A6
:10278000804240F68443C2F200031B6853634FF05B
:10279000804240F68443C2F200035B6893634FF0CB
:1027A000804240F68443C2F200039B68D36346E054
:1027B0004FF080404FF002012AF0E2FC0346012B6B
:1027C0000ED14FF080404FF002012AF009FD4FF486
:1027D0008050C4F202004FF0080102F043FD2EE0E9
:1027E0004FF080404FF004012AF0CAFC0346012B51
:1027F0000ED14FF080404FF004012AF0F1FC4FF46D
:102800000060C4F202004FF4005102F02BFD16E00C
:102810004FF080404FF008012AF0B2FC0346012B34
:102820000DD14FF080404FF008012AF0D9FC4FF451
:102830004060C4F202004FF0400102F013FD80BD81
:1028400080B582B000AF78604FF010004FF001010A
:1028500001F0FAFF4FF002004FF0010101F09CFF80
:1028600041F23403C2F200034FF0C0021A6041F299
:102870003403C2F200034FF002021A7141F2340332
:10288000C2F200034FF002025A7141F23403C2F265
:1028900000034FF000029A7141F23403C2F20003C8
:1028A0004FF00102DA714FF48060C4F2020041F28D
:1028B0003401C2F2000102F0FFFB4FF48060C4F269
:1028C00002004FF006014FF0070202F0D9FC4FF46E
:1028D0008060C4F202004FF007014FF0070202F0DF
:1028E000CFFC41F23C03C2F200037A681A6041F265
:1028F0003C03C2F200034FF000029A8041F23C0315
:10290000C2F200034FF00002DA8041F23C03C2F24F
:1029100000034FF000021A8141F23C03C2F20003AF
:102920004FF000029A8141F23C03C2F200034FF0E3
:102930000C025A814FF48050C4F2010041F23C0174
:10294000C2F20001FFF7DEFC4FF48050C4F2010038
:1029500040F225514FF00102FFF7DEFD41F2500336
:10296000C2F200034FF025021A7041F25003C2F286
:1029700000034FF000025A7041F25003C2F200030C
:102980004FF001029A7041F25003C2F200034FF07F
:102990000102DA7041F25000C2F200000FF0A8FF0D
:1029A0004FF48050C4F201004FF00101FFF780FDA9
:1029B00007F10807BD4680BD80B582B000AF4FF477
:1029C0008050C4F2010040F22551FFF717FE034684
:1029D000002B00F0BA804FF48053C4F201039B88AF
:1029E0009BB2FB7140F6F833C2F200031B6803F19F
:1029F000FF33042B00F2868001A252F823F000BFBF
:102A0000152A0008472A0008792A0008AB2A00087E
:102A1000DD2A00084FF48053C4F201039B889BB267
:102A2000DAB241F2C833C2F200031A7040F6F8334A
:102A3000C2F200031B6803F1010240F6F833C2F250
:102A400000031A605FE04FF48053C4F201039B88D7
:102A50009BB2DAB241F2C833C2F200035A7040F6B8
:102A6000F833C2F200031B6803F1010240F6F833A9
:102A7000C2F200031A6046E04FF48053C4F201032F
:102A80009B889BB2DAB241F2C833C2F200039A705B
:102A900040F6F833C2F200031B6803F1010240F66E
:102AA000F833C2F200031A602DE04FF48053C4F2F1
:102AB00001039B889BB2DAB241F2C833C2F2000331
:102AC000DA7040F6F833C2F200031B6803F101022A
:102AD00040F6F833C2F200031A6014E04FF480535A
:102AE000C4F201039B889BB2DAB241F2C833C2F24E
:102AF00000031A7140F6F833C2F2000340F22B32A1
:102B00001A6000E000BFFA7940F26C03C2F20003E1
:102B10001B689A4213D140F64733C2F200031B7878
:102B20001A4640F26803C2F200031B689A4206D1BB
:102B300040F6F833C2F200034FF001021A6040F68B
:102B40004733C2F20003FA791A7007F10807BD464D
:102B500080BD00BF80B582B000AF78604FF4003018
:102B60004FF0010101F044FE4FF001004FF0010170
:102B700001F012FE41F23403C2F200034FF00C02E6
:102B80001A6041F23403C2F200034FF002021A71DC
:102B900041F23403C2F200034FF002025A7141F2D3
:102BA0003403C2F200034FF000029A7141F2340381
:102BB000C2F200034FF00102DA714FF00000C4F2DC
:102BC000020041F23401C2F2000102F075FA4FF046
:102BD0000000C4F202004FF002014FF0070202F0C1
:102BE0004FFB4FF00000C4F202004FF003014FF022
:102BF000070202F045FB41F23C03C2F200037A688F
:102C00001A6041F23C03C2F200034FF000029A80C6
:102C100041F23C03C2F200034FF40052DA8041F269
:102C20003C03C2F200034FF000021A8141F23C0360
:102C3000C2F200034FF000029A8141F23C03C2F25B
:102C400000034FF00C025A814FF48840C4F2000098
:102C500041F23C01C2F20001FFF754FB4FF48840FF
:102C6000C4F2000040F225514FF00102FFF754FC7E
:102C700041F25003C2F200034FF026021A7041F2F3
:102C80005003C2F200034FF000025A7041F25003A9
:102C9000C2F200034FF001029A7041F25003C2F2F7
:102CA00000034FF00102DA7041F25000C2F200005E
:102CB0000FF01EFE4FF48840C4F200004FF00101F7
:102CC000FFF7F6FB07F10807BD4680BD80B582B06F
:102CD00000AF4FF48840C4F2000040F22551FFF7E6
:102CE0008DFC0346002B48D04FF48843C4F2000308
:102CF0009B889BB2FB7140F6F033C2F200031B6865
:102D0000012B18D14FF48843C4F200039B889BB277
:102D10001A4640F6BC43C2F200031A6040F6F03394
:102D2000C2F200031B6803F1010240F6F033C2F265
:102D300000031A6000BFFA7940F26C03C2F200038C
:102D40001B689A4213D140F64633C2F200031B7847
:102D50001A4640F26803C2F200031B689A4206D189
:102D600040F6F033C2F200034FF001021A6040F661
:102D70004633C2F20003FA791A7007F10807BD461C
:102D800080BD00BF80B582B000AF78604FF40020F6
:102D90004FF0010101F02CFD4FF004004FF0010154
:102DA00001F0FAFC41F23403C2F200034FF4406236
:102DB0001A6041F23403C2F200034FF002021A71AA
:102DC00041F23403C2F200034FF002025A7141F2A1
:102DD0003403C2F200034FF000029A7141F234034F
:102DE000C2F200034FF00102DA714FF40060C4F246
:102DF000020041F23401C2F2000102F05DF94FF429
:102E00000060C4F202004FF00A014FF0080202F025
:102E100037FA4FF40060C4F202004FF00B014FF09C
:102E2000080202F02DFA41F23C03C2F200037A6874
:102E30001A6041F23C03C2F200034FF000029A8094
:102E400041F23C03C2F200034FF00002DA8041F28B
:102E50003C03C2F200034FF000021A8141F23C032E
:102E6000C2F200034FF000029A8141F23C03C2F229
:102E700000034FF00C025A814FF49840C4F2000056
:102E800041F23C01C2F20001FFF73CFA4FF49840D6
:102E9000C4F2000040F225514FF00102FFF73CFB65
:102EA00041F25003C2F200034FF034021A7041F2B3
:102EB0005003C2F200034FF000025A7041F2500377
:102EC000C2F200034FF001029A7041F25003C2F2C5
:102ED00000034FF00102DA7041F25000C2F200002C
:102EE0000FF006FD4FF49840C4F200004FF00101CE
:102EF000FFF7DEFA07F10807BD4680BD80B500AFD9
:102F00004FF49840C4F2000040F22551FFF776FBE1
:102F100080BD00BF80B582B000AF78604FF48010F4
:102F20004FF0010101F064FC4FF004004FF001018B
:102F300001F032FC41F23403C2F200034FF480523C
:102F40001A6041F23403C2F200034FF002021A7118
:102F500041F23403C2F200034FF002025A7141F20F
:102F60003403C2F200034FF000029A7141F23403BD
:102F7000C2F200034FF00102DA714FF40060C4F2B4
:102F8000020041F23401C2F2000102F095F84FF064
:102F900008004FF0010101F0FFFB41F23403C2F2DF
:102FA00000034FF004021A6041F23403C2F200033E
:102FB0004FF002021A7141F23403C2F200034FF0E3
:102FC00002025A7141F23403C2F200034FF00002D0
:102FD0009A7141F23403C2F200034FF00102DA7138
:102FE0004FF44060C4F2020041F23401C2F2000129
:102FF00002F062F84FF40060C4F202004FF00C01DE
:103000004FF0080202F03CF94FF44060C4F20200B5
:103010004FF002014FF0080202F032F941F23C0396
:10302000C2F200037A681A6041F23C03C2F2000364
:103030004FF000029A8041F23C03C2F200034FF0CD
:103040000002DA8041F23C03C2F200034FF00002BA
:103050001A8141F23C03C2F200034FF000029A8150
:1030600041F23C03C2F200034FF00C025A814FF4CC
:10307000A040C4F2000041F23C01C2F20001FFF79F
:1030800041F94FF4A040C4F2000040F225514FF046
:103090000102FFF741FA41F25003C2F200034FF080
:1030A00035021A7041F25003C2F200034FF00002E1
:1030B0005A7041F25003C2F200034FF001029A70BD
:1030C00041F25003C2F200034FF00102DA7041F204
:1030D0005000C2F200000FF00BFC4FF4A040C4F20D
:1030E00000004FF00101FFF7E3F907F10807BD46C3
:1030F00080BD00BF80B582B000AF4FF4A040C4F2E5
:10310000000040F22551FFF779FA0346002B00F04A
:10311000B3814FF4A043C4F200039B889BB2FB71C0
:1031200040F6F043C2F200031B6803F1FF330A2BA1
:1031300000F2528101A252F823F000BF6931000869
:103140009B310008CD310008FF3100087B320008B8
:10315000AD320008DF3200081133000843330008A5
:1031600075330008A73300084FF4A043C4F20003EE
:103170009B889BB21A4640F60853C2F200031A60BD
:1031800040F6F043C2F200031B6803F1010240F66F
:10319000F043C2F200031A601EE14FF4A043C4F2F0
:1031A00000039B889BB21A4640F60853C2F2000304
:1031B0005A6040F6F043C2F200031B6803F10102BB
:1031C00040F6F043C2F200031A6005E14FF4A04359
:1031D000C4F200039B889BB21A4640F60853C2F221
:1031E00000039A6040F6F043C2F200031B6803F14B
:1031F000010240F6F043C2F200031A60ECE040F630
:103200000853C2F200031A6840F27803C2F20003C6
:103210001B689A4218D14FF4A043C4F200039B8864
:103220009BB21A4640F60853C2F20003DA6040F639
:10323000F043C2F200031B6803F1010240F6F043C1
:10324000C2F200031A60C7E04FF4A043C4F20003C7
:103250009B889BB21A4640F60853C2F20003DA601C
:1032600040F6F043C2F200031B6803F13F0240F650
:10327000F043C2F200031A60AEE04FF4A043C4F280
:1032800000039B889BB21A4640F60853C2F2000323
:103290001A6140F6F043C2F200031B6803F1010219
:1032A00040F6F043C2F200031A6095E04FF4A043E9
:1032B000C4F200039B889BB21A4640F60853C2F240
:1032C00000035A6140F6F043C2F200031B6803F1A9
:1032D000010240F6F043C2F200031A607CE04FF4B2
:1032E000A043C4F200039B889BB21A4640F60853E1
:1032F000C2F200039A6140F6F043C2F200031B6879
:1033000003F1010240F6F043C2F200031A6063E0E9
:103310004FF4A043C4F200039B889BB21A4640F6C8
:103320000853C2F20003DA6140F6F043C2F2000330
:103330001B6803F1010240F6F043C2F200031A6079
:103340004AE04FF4A043C4F200039B889BB21A46A4
:1033500040F60853C2F200031A6240F6F043C2F28C
:1033600000031B6803F1010240F6F043C2F20003C0
:103370001A6031E04FF4A043C4F200039B889BB273
:103380001A4640F60853C2F200035A6240F6F04370
:10339000C2F200031B6803F1010240F6F043C2F2DF
:1033A00000031A6018E04FF4A043C4F200039B88A6
:1033B0009BB21A4640F60853C2F200039A6240F6E6
:1033C000F043C2F200031B6803F13F0240F6F043F2
:1033D000C2F200031A6000BFFA7940F26C03C2F235
:1033E00000031B689A4213D140F64533C2F2000332
:1033F0001B781A4640F26803C2F200031B689A4227
:1034000006D140F6F043C2F200034FF001021A6009
:1034100040F64533C2F20003FA791A7040F60853B9
:10342000C2F200035A6840F27423C2F200031B6820
:103430009A4221D140F60853C2F200031A6840F2C2
:103440003003C2F200031B689A4215D040F65C5369
:10345000C2F200031A6840F27823C2F200031B682C
:103460009A4209D140F27423C2F200031A6840F66E
:103470005453C2F200031A6007F10807BD4680BD2D
:1034800080B582B000AF78604FF020004FF00101AE
:1034900001F0DAF94FF004004FF0010101F07CF97E
:1034A00041F23403C2F200034FF0C0021A6041F24D
:1034B0003403C2F200034FF002021A7141F23403E6
:1034C000C2F200034FF002025A7141F23403C2F219
:1034D00000034FF000029A7141F23403C2F200037C
:1034E0004FF00102DA714FF40060C4F2020041F2C1
:1034F0003401C2F2000101F0DFFD4FF40060C4F2BC
:1035000002004FF006014FF0080201F0B9FE4FF43F
:103510000060C4F202004FF007014FF0080201F012
:10352000AFFE41F23C03C2F200037A681A6041F236
:103530003C03C2F200034FF000029A8041F23C03C8
:10354000C2F200034FF00002DA8041F23C03C2F203
:1035500000034FF000021A8141F23C03C2F2000363
:103560004FF000029A8141F23C03C2F200034FF097
:103570000C025A814FF4A050C4F2010041F23C0108
:10358000C2F20001FEF7BEFE4FF4A050C4F20100EB
:1035900040F225514FF00102FEF7BEFF41F2500309
:1035A000C2F200034FF047021A7041F25003C2F218
:1035B00000034FF000025A7041F25003C2F20003C0
:1035C0004FF001029A7041F25003C2F200034FF033
:1035D0000102DA7041F25000C2F200000FF088F9E7
:1035E0004FF4A050C4F201004FF00101FEF760FF5C
:1035F00007F10807BD4680BD80B582B000AF4FF42B
:10360000A050C4F2010040F22551FEF7F7FF034637
:10361000002B64D04FF4A053C4F201039B889BB2EB
:10362000FB7140F6F433C2F200031B68012B02D099
:10363000022B19D031E04FF4A053C4F201039B8850
:103640009BB21A4640F6D843C2F200031A6040F615
:10365000F433C2F200031B6803F1010240F6F433B5
:10366000C2F200031A6018E04FF4A053C4F2010341
:103670009B889BB21A4640F6E043C2F200031A60F0
:1036800040F6F433C2F200031B6803F10D0240F66A
:10369000F433C2F200031A6000BFFA7940F26C03FF
:1036A000C2F200031B689A4213D140F64433C2F2BF
:1036B00000031B781A4640F26803C2F200031B683D
:1036C0009A4206D140F6F433C2F200034FF00102F1
:1036D0001A6040F64433C2F20003FA791A7007F117
:1036E0000807BD4680BD00BF0EB480B482B000AFF5
:1036F000786007F10807BD4680BC03B0704700BF83
:1037000080B582B000AF7860396000BF78684FF054
:103710008001FEF753FF0346002BF7D03B689BB2B6
:1037200078681946FEF7E4FE07F10807BD4680BD3C
:1037300080B500AF40F6BC43C2F200031B68052B06
:1037400011D94FF48050C4F2010045F23401C0F6A3
:103750000301FFF7C9FF40F6BC43C2F200034FF07C
:1037600000021A601FE040F6BC43C2F200035B682F
:103770004FF48050C4F2010045F23C01C0F6030151
:103780001A46FFF7B1FF40F6BC43C2F200031B68C4
:103790004FF48050C4F2010045F25001C0F603011D
:1037A0001A46FFF7A1FF80BD98B500AF29F00CFACB
:1037B0000EF026FC40F6BC43C2F200031B68002B4F
:1037C00007D141F2D833C2F200031B68002B40F04E
:1037D00089814FF44060C4F200004FF001014FF0C6
:1037E000010229F0A9FC40F6BC43C2F200031B68A9
:1037F000002B76D1FDF740F84FF001004FF00001AB
:10380000FDF706F840F6D843C2F200031A6840F606
:10381000E043C2F200031B6840F60C60C2F20000F5
:1038200045F26401C0F603012CF00EFA40F60C607C
:10383000C2F20000FCF7D6FF4FF000004FF001018C
:10384000FCF7E6FF41F2D833C2F200031B6840F6F2
:103850000C60C2F2000045F27001C0F603011A4686
:103860002CF0F2F940F60C60C2F20000FCF7BAFF4F
:103870004FF000004FF00201FCF7CAFF40F60C6267
:10388000C2F2000245F28003C0F60303144693E837
:10389000070084E8070040F60C60C2F20000FCF765
:1038A000A1FF4FF000004FF00301FCF7B1FF41F220
:1038B000F013C2F200031B6840F60C60C2F2000075
:1038C00045F28C01C0F603011A462CF0BDF940F612
:1038D0000C60C2F20000FCF785FF4FF0640001F0BD
:1038E0009DFB41F2D833C2F200031B68012B7AD151
:1038F000FCF7C2FF4FF001004FF00001FCF788FF1A
:1039000040F6D843C2F200031A6840F6E043C2F220
:1039100000031B6840F60C60C2F2000045F264012F
:10392000C0F603012CF090F940F60C60C2F20000E2
:10393000FCF758FF4FF000004FF00101FCF768FF63
:1039400040F60C63C2F2000345F29802C0F603028F
:1039500007CA03C31A8003F102034FEA12421A7026
:1039600040F60C60C2F20000FCF73CFF4FF0000094
:103970004FF00201FCF74CFF40F6BC43C2F20003DB
:103980001B6840F60C60C2F2000045F2A401C0F6CC
:1039900003011A462CF058F940F60C60C2F2000000
:1039A000FCF720FF4FF000004FF00301FCF730FF61
:1039B00041F2F013C2F200031B6840F60C60C2F241
:1039C000000045F28C01C0F603011A462CF03CF9C8
:1039D00040F60C60C2F20000FCF704FF4FF06400F8
:1039E00001F01CFB1AE14FF0010002F0F1FDFCF7C1
:1039F00043FF4FF001004FF00001FCF709FF40F6D4
:103A0000D843C2F200031A6840F6E043C2F2000352
:103A10001B6840F60C60C2F2000045F26401C0F67B
:103A200003012CF011F940F60C60C2F20000FCF723
:103A3000D9FE4FF000004FF00101FCF7E9FE41F222
:103A4000D833C2F200031B6840F60C60C2F20000DB
:103A500045F27001C0F603011A462CF0F5F840F665
:103A60000C60C2F20000FCF7BDFE4FF000004FF00A
:103A70000201FCF7CDFE40F6BC43C2F200031B6816
:103A800040F60C60C2F2000045F2A401C0F603014A
:103A90001A462CF0D9F840F60C60C2F20000FCF790
:103AA000A1FE4FF000004FF00301FCF7B1FE41F220
:103AB000F013C2F200031B6840F60C60C2F2000073
:103AC00045F28C01C0F603011A462CF0BDF840F611
:103AD0000C60C2F20000FCF785FE4FF0640001F0BC
:103AE0009DFA9BE040F6BC43C2F200031B68002B2A
:103AF00040F09480FCF7C0FE4FF001004FF0000151
:103B0000FCF786FE40F6D843C2F200031A6840F67E
:103B1000E043C2F200031B6840F60C60C2F20000F2
:103B200045F26401C0F603012CF08EF840F60C60FB
:103B3000C2F20000FCF756FE4FF000004FF001010A
:103B4000FCF766FE41F2D833C2F200031B6840F670
:103B50000C60C2F2000045F27001C0F603011A4683
:103B60002CF072F840F60C60C2F20000FCF73AFE4E
:103B70004FF000004FF00201FCF74AFE40F6BC4354
:103B8000C2F200031B6840F60C60C2F2000045F26E
:103B9000A401C0F603011A462CF056F840F60C605A
:103BA000C2F20000FCF71EFE4FF000004FF00301D0
:103BB000FCF72EFE41F2F013C2F200031B6840F640
:103BC0000C60C2F2000045F28C01C0F603011A46F7
:103BD0002CF03AF840F60C60C2F20000FCF702FE4E
:103BE0004FF0640001F01AFA4FF44060C4F2020092
:103BF0004FF4804101F036FB4FF44060C4F2000006
:103C00004FF001014FF0000229F096FA4FF44060A6
:103C1000C4F202004FF4804101F024FB98BD00BFC4
:103C200080B582B000AF46F61C13C0F603037B607C
:103C300040F20003C2F200033B600BE07B681A68AD
:103C40003B681A603B6803F104033B607B6803F147
:103C500004037B603A6840F64433C2F200039A42A0
:103C6000ECD30A480A494FF000028842B8BF40F836
:103C7000042BFADBDFF81C00016841F470010160DD
:103C800000F0A2F807F10807BD4680BD440B0020F4
:103C90003C3C002088ED00E080B400AFFEE700BFB0
:103CA00098B500AFFCF7E8FD4FF002004FF00001BF
:103CB000FCF7AEFD40F60C62C2F2000245F2B8031A
:103CC000C0F6030314460FCB07C4237040F60C6004
:103CD000C2F20000FCF786FD4FF004004FF0010136
:103CE000FCF796FD40F60C63C2F2000345F2C802F1
:103CF000C0F6030207CA03C31A8040F60C60C2F282
:103D00000000FCF76FFD4FF002004FF00201FCF7DE
:103D10007FFD40F60C62C2F2000245F2D403C0F609
:103D2000030314460FCB07C4238040F60C60C2F295
:103D30000000FCF757FD4FF002004FF00301FCF7C5
:103D400067FD40F60C62C2F2000245F2E403C0F6E1
:103D5000030314460FCB07C4237040F60C60C2F275
:103D60000000FCF73FFD4FF0640001F057F903F04D
:103D7000A5FE4FF0640001F051F94FF00000C4F2CD
:103D800002004FF0020101F041FA03461A4640F6E4
:103D9000C633C2F200031A8040F6C633C2F20003F3
:103DA0001B88012B06D14FF0020002F011FC00F03D
:103DB00089FD07E04FF48060C4F202004FF4004137
:103DC00001F042FA98BD00BFB0B582B000AF00F07C
:103DD00081FA03F073FE4FF0640001F01FF94FF415
:103DE0008050C4F2010045F2F401C0F60301FFF770
:103DF0007BFC3FE04FF00000C4F202004FF00201F4
:103E000001F004FA0346012B03D14FF001037B605C
:103E100046E04FF00000C4F202004FF0010101F053
:103E2000F5F90346002B03D14FF001033B6037E067
:103E3000FCF7E0FDFCF78CFE4FF00000C4F202003E
:103E40004FF0020101F0E2F90346012B03D14FF0DC
:103E500001037B6024E04FF00000C4F202004FF049
:103E6000010101F0D3F90346002B03D14FF0010308
:103E70003B6015E04FF00000C4F202004FF0020179
:103E800001F0C4F90346002B0AD14FF00000C4F240
:103E900002004FF0010101F0B9F90346012BA9D04E
:103EA0004FF00000C4F202004FF0020101F0AEF941
:103EB0000346012B02D14FF001037B604FF000005D
:103EC000C4F202004FF0010101F0A0F90346002BFB
:103ED00002D14FF001033B607B68012B79D14FF099
:103EE000010002F075FB4FF48050C4F2010045F26E
:103EF0000C11C0F60301FFF7F7FBFCF7BDFC4FF018
:103F000002004FF00001FCF783FC40F60C62C2F2A5
:103F1000000245F22813C0F6030314460FCB07C472
:103F2000237040F60C60C2F20000FCF75BFC4FF01F
:103F300004004FF00101FCF76BFC40F60C63C2F289
:103F4000000345F23812C0F6030207CA03C31A8001
:103F500040F60C60C2F20000FCF744FC4FF0000099
:103F60004FF00201FCF754FC40F60C62C2F2000272
:103F700045F24413C0F6030314461D460FCD0FC48B
:103F80002B68237040F60C60C2F20000FCF72AFC9C
:103F90004FF000004FF00301FCF73AFC40F60C62D2
:103FA000C2F2000245F25813C0F6030314461D4640
:103FB0000FCD0FC42B68237040F60C60C2F20000D6
:103FC000FCF710FC4FF0640001F028F80FF00EF839
:103FD00077E03B68012B74D14FF0020002F0F8FA51
:103FE0004FF48050C4F2010045F26C11C0F6030199
:103FF000FFF77AFBFCF740FC4FF002004FF00001A6
:10400000FCF706FC40F60C62C2F2000245F22813EF
:10401000C0F6030314460FCB07C4237040F60C60B0
:10402000C2F20000FCF7DEFB4FF004004FF001018C
:10403000FCF7EEFB40F60C63C2F2000345F23812C7
:10404000C0F6030207CA03C31A8040F60C60C2F22E
:104050000000FCF7C7FB4FF000004FF00201FCF737
:10406000D7FB40F60C62C2F2000245F24413C0F6E0
:10407000030314461D460FCD0FC42B68237040F672
:104080000C60C2F20000FCF7ADFB4FF000004FF0F7
:104090000301FCF7BDFB40F60C62C2F2000245F2E0
:1040A0008413C0F6030314460FCB84E80F0040F6D8
:1040B0000C60C2F20000FCF795FB4FF0640000F0CA
:1040C000ADFF41F23043C2F200031B88062B00F221
:1040D000008101A252F823F0F5400008F7400008E3
:1040E000154200083F4200089D420008B342000804
:1040F000C9420008EDE041F23043C2F200031B88E0
:10410000184600F059FE40F60843C2F200034FF093
:1041100001021A600EF08EFF0FF07CF840F230239F
:10412000C2F200035A6840F64853C2F200031B680B
:104130009A422AD140F6A033C2F200031A6840F630
:104140009833C2F200031A604FF0010002F040FA07
:1041500001F02CFC16F070FF4FF096004FF00501B7
:1041600007F066FC4FF096004FF0050107F060FC89
:104170004FF096004FF0050107F05AFC4FF0010098
:1041800002F026FA22F0D8F927E040F25803C2F2F2
:1041900000031A6840F69833C2F200031A6019F05F
:1041A000B9FA40F64C53C2F200031A6840F26C238D
:1041B000C2F200031B689A4207D14FF005004FF08E
:1041C000820103F003FD19F0A5FA4FF0010002F09F
:1041D000FFF901F0EBFB16F02FFF40F69833C2F227
:1041E00000031A6840F69833C2F200035A6040F6A2
:1041F000A033C2F200031A6840F69833C2F20003FB
:104200001A6022F081FC4FF0010002F0E1F903F0A6
:1042100055FCF8E741F23043C2F200031B88184610
:1042200000F0CAFD01F0C2FB16F006FF22F084F98F
:104230004FF0030002F0CCF903F040FCF8E741F244
:104240003043C2F200031B88184600F0B5FD40F66B
:104250009833C2F200031A6840F69833C2F20003A2
:104260005A6040F6A033C2F200031A6840F6983351
:10427000C2F200031A604FF0020002F0A9F94FF4F5
:104280008050C4F2010045F29411C0F60301FFF71B
:104290002BFA07F0F7FD0DF00BFEFAE741F2304381
:1042A000C2F200031B88184600F086FDFDF790FD62
:1042B000FCE741F23043C2F200031B88184600F0CD
:1042C0007BFDFCF77FF8FCE712F04EFB25F07EFD4E
:1042D000FCE7FEE798B500AF01F028F800F03CFEDF
:1042E00002F028FB4FF0320000F098FEFCF712FAC3
:1042F000FCF7CAFAFCF7C0FAFCF7BEFA4FF002006E
:104300004FF00001FCF784FA40F60C62C2F20002A2
:1043100045F22813C0F6030314460FCB07C42370DD
:1043200040F60C60C2F20000FCF75CFA4FF00500AA
:104330004FF00101FCF76CFA40F60C63C2F2000387
:1043400045F2B412C0F6030292E80300186003F1CC
:104350000403198003F102034FEA11421A7040F678
:104360000C60C2F20000FCF73DFA4FF001004FF084
:104370000201FCF74DFA40F60C62C2F2000245F26F
:10438000BC13C0F6030314460FCB07C4238004F10B
:1043900002044FEA1343237040F60C60C2F200009F
:1043A000FCF720FA4FF001004FF00301FCF730FA60
:1043B00040F60C62C2F2000245F2CC13C0F60303D1
:1043C00014460FCB07C4238004F102044FEA1343C1
:1043D000237040F60C60C2F20000FCF703FA4FF4C1
:1043E000FA7000F01BFE00F05BFA4FF41650FEF777
:1043F00027FA4FF41650FEF7ADFB4FF416500EF0AF
:10440000E9FA4FF41650FEF7BDFC4FF41650FEF7D4
:1044100081FD4FF41650FFF733F801F0FBFF02F077
:10442000A1F802F03BF902F06FF9FCF73BFAFCF758
:10443000E1FA01F0C9F800F039FA01F0B7FAFBF738
:10444000A3FE0DF061FD12F08FFA00F0FFFD4FF0BA
:10445000020002F0BDF8FCF70FFA4FF002004FF037
:104460000001FCF7D5F940F60C62C2F2000245F2F9
:104470002813C0F6030314460FCB07C4237040F67D
:104480000C60C2F20000FCF7ADF94FF005004FF0F0
:104490000101FCF7BDF940F60C63C2F2000345F2DE
:1044A000B412C0F6030292E80300186003F104039B
:1044B000198003F102034FEA11421A7040F60C60B2
:1044C000C2F20000FCF78EF94FF001004FF002013C
:1044D000FCF79EF940F60C62C2F2000245F2BC13F2
:1044E000C0F6030314460FCB07C4238004F1020473
:1044F0004FEA1343237040F60C60C2F20000FCF751
:1045000071F94FF003004FF00301FCF781F940F619
:104510000C63C2F2000345F2DC12C0F6030207CAC4
:1045200003C31A8040F60C60C2F20000FCF75AF98F
:104530004FF0320000F072FD4FF48050C4F20100E1
:1045400045F2E811C0F60301FFF7CEF84FF48050B2
:10455000C4F2010045F2FC11C0F60301FFF7C4F8F4
:104560004FF48050C4F2010045F23021C0F603013F
:10457000FFF7BAF84FF48050C4F2010045F2482129
:10458000C0F60301FFF7B0F84FF48050C4F2010009
:1045900045F24821C0F60301FFF7A6F84FF480501A
:1045A000C4F2010045F24C21C0F60301FFF79CF86C
:1045B0004FF48050C4F2010045F25021C0F60301CF
:1045C000FFF792F898BD00BF80B489B000AF786063
:1045D0004FF00003BB614FF000037B614FF000031D
:1045E000FB614FF002033B614FF00003FB604FF0B3
:1045F0000203BB604FF46053C4F202039B6803F0F4
:104600000C03BB61BB69042B0AD0082B0FD0002B15
:1046100062D17A684FF41053C0F2F403136062E081
:104620007A684FF49053C0F27A0313605BE04FF462
:104630006053C4F202035B6803F480034FEA9353B0
:10464000FB604FF46053C4F202035B6803F03F0366
:10465000BB60FB68002B15D04FF49053C0F27A0377
:10466000BA68B3FBF2F24FF46053C4F202035B6822
:10467000194647F6C0730B404FEA931303FB02F34E
:10468000FB6114E04FF41053C0F2F403BA68B3FBBB
:10469000F2F24FF46053C4F202035B68194647F626
:1046A000C0730B404FEA931303FB02F3FB614FF41B
:1046B0006053C4F202035B6803F440334FEA1343D0
:1046C00003F101034FEA43033B61FA693B69B2FB23
:1046D000F3F27B681A6006E07A684FF41053C0F278
:1046E000F403136000BF4FF46053C4F202039B68ED
:1046F00003F0F003BB61BB694FEA1313BB6140F2E7
:104700000003C2F20003BA699B181B78DBB27B611D
:104710007B681A687B6922FA03F27B685A604FF45F
:104720006053C4F202039B6803F4E053BB61BB69AE
:104730004FEA9323BB6140F20003C2F20003BA695F
:104740009B181B78DBB27B617B685A687B6922FA15
:1047500003F27B689A604FF46053C4F202039B68D3
:1047600003F46043BB61BB694FEA5333BB6140F262
:104770000003C2F20003BA699B181B78DBB27B61AD
:104780007B685A687B6922FA03F27B68DA6007F17A
:104790002407BD4680BC704780B483B000AF78600A
:1047A0000B46FB70FB78002B0DD04FF46053C4F226
:1047B00002034FF46052C4F20202126B11467A688F
:1047C0000A431A630EE04FF46053C4F202034FF43D
:1047D0006052C4F20202126B11467A686FEA02025A
:1047E0000A401A6307F10C07BD4680BC704700BF42
:1047F00080B483B000AF78600B46FB70FB78002B71
:104800000DD04FF46053C4F202034FF46052C4F26F
:104810000202126C11467A680A431A640EE04FF4E1
:104820006053C4F202034FF46052C4F20202126CED
:1048300011467A686FEA02020A401A6407F10C070F
:10484000BD4680BC704700BF80B483B000AF7860C5
:104850000B46FB70FB78002B0DD04FF46053C4F275
:1048600002034FF46052C4F20202526C11467A689D
:104870000A435A640EE04FF46053C4F202034FF44B
:104880006052C4F20202526C11467A686FEA020268
:104890000A405A6407F10C07BD4680BC704700BF50
:1048A00080B400AFBD4680BC704700BF80B500AF8C
:1048B00000F01EF84FF40063C4F200034FF4FA62F4
:1048C0005A6380BD80B500AF4FF40063C4F20003AB
:1048D0004FF47A625A6340F6B83000F09FFB4FF411
:1048E0000063C4F200034FF4FA625A6380BD00BF54
:1048F00080B500AF4FF008004FF00101FFF74CFF0B
:104900004FF004004FF00101FFF772FF41F2340352
:10491000C2F200034FF480521A6041F23403C2F233
:1049200000034FF002021A7141F23403C2F2000395
:104930004FF003025A7141F23403C2F200034FF008
:1049400000029A7141F23403C2F200034FF00002F8
:10495000DA714FF44060C4F2020041F23401C2F255
:10496000000100F0A9FB4FF44060C4F202004FF0D8
:104970000C014FF0020200F083FC40F62863C2F203
:1049800000034FF000021A8140F62863C2F20003D0
:104990004FF000025A8040F62863C2F2000349F645
:1049A0003F425A6040F62863C2F200034FF02902EA
:1049B0001A804FF40060C4F2000040F62861C2F291
:1049C000000128F025F94FF40060C4F200004FF018
:1049D000010128F097F940F66473C2F200034FF02A
:1049E00070021A8040F66473C2F200034FF00102B5
:1049F0005A8040F66473C2F200034FF002029A81BB
:104A00004FF40063C4F200035B6B1A4640F6647314
:104A1000C2F200039A604FF40060C4F2000040F656
:104A20006471C2F2000128F08DF94FF40060C4F205
:104A300000004FF0080128F027FB80BD80B485B04E
:104A400000AF786039604FF00003FB604FF0000367
:104A5000FB727B685B68FB60FB6823F0407323F4A8
:104A60008073FB603B681B794FEA03223B681B683D
:104A70001343FA681343FB607B68FA685A607B68EB
:104A80009B68FB60FA684FF2FD73CCF2FF031340A2
:104A9000FB603B681A693B68DB681A433B689B68AC
:104AA0001A433B685B794FEA43031343FA681343A5
:104AB000FB607B68FA689A607B68DB6AFB60FB6876
:104AC00023F47003FB603B681B7D03F1FF33DAB214
:104AD000FB7A1343FB72FB7A4FEA0353FA681343E2
:104AE000FB607B68FA68DA6207F11407BD4680BC98
:104AF000704700BF80B485B000AF78604FF000030E
:104B0000FB604FF40C53C4F201035B68FB60FA686E
:104B100043F2E003CFF6FC731340FB607B681A6836
:104B20007B685B681A437B689B681A437B68DB6819
:104B30001343FA681343FB604FF40C53C4F20103B0
:104B4000FA685A6007F11407BD4680BC704700BF81
:104B500080B483B000AF78600B46FB70FB78002B0D
:104B600006D07B689B6843F001027B689A6005E091
:104B70007B689B6823F001027B689A6007F10C0751
:104B8000BD4680BC704700BF80B485B000AF786080
:104B9000F970BA707B704FF00003FB604FF00003B8
:104BA000BB60FB78092B27D97B68DB68FB60FA7850
:104BB00013464FEA43039B18A3F11E034FF007026D
:104BC00002FA03F3BB60BB686FEA0303FA681340A1
:104BD000FB607978FA7813464FEA43039B18A3F1F8
:104BE0001E0301FA03F3BB60FA68BB681343FB6062
:104BF0007B68FA68DA6022E07B681B69FB60FA7800
:104C000013464FEA43039B184FF0070202FA03F3DF
:104C1000BB60BB686FEA0303FA681340FB607978F6
:104C2000FA7813464FEA43039B1801FA03F3BB607B
:104C3000FA68BB681343FB607B68FA681A61BB784B
:104C4000062B27D87B685B6BFB60BB7803F1FF32D8
:104C500013464FEA83039B184FF01F0202FA03F337
:104C6000BB60BB686FEA0303FA681340FB60F97826
:104C7000BB7803F1FF3213464FEA83039B1801FA16
:104C800003F3BB60FA68BB681343FB607B68FA6898
:104C90005A6351E0BB780C2B27D87B681B6BFB60F9
:104CA000BA7813464FEA83039B18A3F123034FF00E
:104CB0001F0202FA03F3BB60BB686FEA0303FA68E2
:104CC0001340FB60F978BA7813464FEA83039B18C8
:104CD000A3F1230301FA03F3BB60FA68BB68134333
:104CE000FB607B68FA681A6326E07B68DB6AFB601E
:104CF000BA7813464FEA83039B18A3F141034FF0A0
:104D00001F0202FA03F3BB60BB686FEA0303FA6891
:104D10001340FB60F978BA7813464FEA83039B1877
:104D2000A3F1410301FA03F3BB60FA68BB681343C4
:104D3000FB607B68FA68DA6207F11407BD4680BC45
:104D4000704700BF80B483B000AF78607B689B6819
:104D500043F080427B689A6007F10C07BD4680BC37
:104D6000704700BF80B483B000AF78600B46FB7023
:104D7000FB78002B06D07B689B6843F002027B68BF
:104D80009A6005E07B689B6823F002027B689A606A
:104D900007F10C07BD4680BC704700BF80B483B0EC
:104DA00000AF78607B68DB6C9BB2184607F10C079C
:104DB000BD4680BC704700BFB0B582B000AF786020
:104DC000FBF75AFD4FF002004FF00001FBF720FD0A
:104DD00040F60C62C2F2000245F26C23C0F60303F7
:104DE00014460FCB07C4237040F60C60C2F20000DB
:104DF000FBF7F8FC4FF004004FF00101FBF708FD52
:104E000040F60C63C2F2000345F27C22C0F60302B6
:104E100007CA03C31A8040F60C60C2F20000FBF719
:104E2000E1FC4FF000004FF00201FBF7F1FC40F60F
:104E30000C62C2F2000245F28823C0F60303144656
:104E40001D460FCD0FC42B68237040F60C60C2F2D4
:104E50000000FBF7C7FC4FF002004FF00301FBF727
:104E6000D7FC40F60C62C2F2000245F29C23C0F669
:104E7000030314460FCB07C4237040F60C60C2F244
:104E80000000FBF7AFFC4FF0640000F0C7F807F13B
:104E90000807BD46B0BD00BF80B483B000AF034675
:104EA0003960FB7197F90730002B10DA4FF46D432E
:104EB000CEF20003FA7902F00F02A2F104013A687F
:104EC000D2B24FEA0212D2B25B181A760DE04FF45A
:104ED0006143CEF2000397F907103A68D2B24FEA65
:104EE0000212D2B25B1883F8002307F10C07BD460B
:104EF00080BC704780B582B000AF78607A686FF090
:104F00007F439A4202D94FF001031FE04EF2100393
:104F1000CEF200037A6822F07F4202F1FF325A603B
:104F20004FF0FF304FF00F01FFF7B6FF4EF21003C6
:104F3000CEF200034FF000029A604EF21003CEF260
:104F400000034FF007021A604FF00003184607F104
:104F50000807BD4680BD00BF80B500AF00BF40F26E
:104F60001003C2F200031A684DF68363C4F21B33C8
:104F7000A3FB02134FEA93431846FFF7BBFF034618
:104F8000002BECD180BD00BF80B500AF00F002F86F
:104F900080BD00BF80B400AF40F64833C2F20003CA
:104FA0001B68002B0BD040F64833C2F200031B688D
:104FB00003F1FF3240F64833C2F200031A60BD46E7
:104FC00080BC704780B483B000AF786040F648334F
:104FD000C2F200037A681A6000BF40F64833C2F29A
:104FE00000031B68002BF8D107F10C07BD4680BCFD
:104FF000704700BF80B400AF40F64833C2F20003F0
:105000004FF47A721A6000BF40F64833C2F20003D0
:105010001B68002BF8D1BD4680BC704780B582B0BC
:1050200000AF786001E0FFF7E5FF7B68002B0CBF65
:1050300000230123DBB27A6802F1FF327A60002B91
:10504000F1D107F10807BD4680BD00BF80B500AFB4
:105050004FF001004FF00101FFF79EFB41F23403D6
:10506000C2F200034FF001021A6041F23403C2F2AF
:1050700000034FF000021A7141F23403C2F2000340
:105080004FF001029A7141F23403C2F200034FF073
:1050900003025A7141F23403C2F200034FF00102DD
:1050A000DA714FF00000C4F2020041F23401C2F2A2
:1050B000000100F001F880BD80B487B000AF7860D7
:1050C00039604FF000037B614FF000033B614FF00C
:1050D0000003FB604FF000037B618EE07B694FF0C3
:1050E000010202FA03F33B613B681A683B69134013
:1050F000FB60FA683B699A427BD17B681B681A4661
:105100007B694FEA43034FF0030101FA03F36FEAAF
:1051100003031A407B681A607B681B681A463B6869
:105120001B7919467B694FEA430301FA03F31A43DB
:105130007B681A603B681B79012B03D03B681B79A5
:10514000022B38D17B689B681A467B694FEA430380
:105150004FF0030101FA03F36FEA03031A407B687F
:105160009A607B689B681A463B685B7919467B6945
:105170004FEA430301FA03F31A437B689A607B68A2
:105180005B681A467B699BB24FF0010101FA03F399
:105190006FEA03031A407B685A607B685B681A46B3
:1051A0003B689B7919467B699BB201FA03F39BB27A
:1051B0001A437B685A607B68DB681A467B699BB23E
:1051C0004FEA43034FF0030101FA03F36FEA0303CD
:1051D0001A407B68DA607B68DB681A463B68DB79DB
:1051E00019467B694FEA430301FA03F31A437B68CC
:1051F000DA607B6903F101037B617B690F2B7FF62A
:105200006DAF07F11C07BD4680BC704780B485B008
:1052100000AF78600B467B804FF00003FB737B6828
:105220001B691A467B881340002B03D04FF0010303
:10523000FB7302E04FF00003FB73FB7B184607F1A2
:105240001407BD4680BC704780B483B000AF78605F
:105250000B467B807B687A881A8307F10C07BD4672
:1052600080BC704780B483B000AF78600B467B8011
:105270007B687A885A8307F10C07BD4680BC70476B
:1052800080B485B000AF786013460A467A807B70A0
:105290004FF00003FB604FF00003BB607A787B881F
:1052A00003F007034FEA830302FA03F3FB607B88F2
:1052B0004FEAD3039BB21A467B884FEAD3039BB2D3
:1052C00019467B6801F1080153F8213019467B88A3
:1052D00003F007034FEA83034FF00F0000FA03F3D4
:1052E0006FEA030319407B6802F1080243F82210B9
:1052F0007B884FEAD3039BB21A467B6802F108020F
:1053000053F822301A46FB681343BB607B884FEA90
:10531000D3039BB21A467B6802F10802B96843F8CE
:10532000221007F11407BD4680BC704780B500AF5E
:105330004FF46D43CEF200034FF46D42CEF2000203
:10534000D2F8882042F47002C3F888204FF46053EA
:10535000C4F202034FF46052C4F20202126842F037
:1053600001021A604FF46053C4F202034FF00002CE
:105370009A604FF46053C4F202034FF46052C4F2D7
:105380000202126822F0847222F480321A604FF412
:105390006053C4F2020343F21002C2F200425A60A8
:1053A0004FF46053C4F202034FF46052C4F202029D
:1053B000126822F480221A604FF46053C4F2020390
:1053C0004FF00002DA6000F009F84FF46D43CEF2BE
:1053D00000034FF000629A6080BD00BF80B483B0CC
:1053E00000AF4FF000037B604FF000033B604FF4D1
:1053F0006053C4F202034FF46052C4F20202126816
:1054000042F480321A604FF46053C4F202031B6806
:1054100003F400333B607B6803F101037B603B686E
:10542000002B03D17B68B3F5A06FECD14FF4605330
:10543000C4F202031B6803F40033002B03D04FF0C7
:1054400001033B6002E04FF000033B603B68012B2F
:1054500040F082804FF46053C4F202034FF4605274
:10546000C4F20202126C42F080521A644FF4E0431C
:10547000C4F200034FF4E042C4F20002126842F4A6
:1054800080421A604FF46053C4F202034FF460523A
:10549000C4F2020292689A604FF46053C4F20203AD
:1054A0004FF46052C4F20202926842F400429A60E1
:1054B0004FF46053C4F202034FF46052C4F202028C
:1054C000926842F4A0529A604FF46053C4F202030F
:1054D00045F20842C0F240725A604FF46053C4F281
:1054E00002034FF46052C4F20202126842F080726A
:1054F0001A6000BF4FF46053C4F202031B6803F04C
:105500000073002BF6D04FF47053C4F2020340F244
:1055100005621A604FF46053C4F202034FF4605204
:10552000C4F20202926822F003029A604FF46053C0
:10553000C4F202034FF46052C4F20202926842F0D5
:1055400002029A6000BF4FF46053C4F202039B68EA
:1055500003F00C03082BF6D107F10C07BD4680BC05
:10556000704700BF80B485B000AF786040F64C3320
:10557000C2F200031B68002B08D140F64C33C2F284
:10558000000343F63C42C2F200021A6040F64C337C
:10559000C2F200031B68FB6040F64C33C2F200030A
:1055A0001A687B68D21840F64C33C2F200031A60C6
:1055B000FB68184607F11407BD4680BC704700BF62
:1055C00080B400AFFEE700BF80B500AF4FF0010030
:1055D0004FF00101FFF7E0F841F23403C2F200039B
:1055E00048F210021A6041F23403C2F200034FF095
:1055F00000021A7141F23403C2F200034FF00002BC
:105600009A7141F23403C2F200034FF003025A715F
:1056100041F23403C2F200034FF00102DA714FF09D
:105620000000C4F2020041F23401C2F20001FFF7AF
:1056300043FD4FF004004FF00101FFF7ADF841F2D8
:105640003403C2F200034FF001021A6041F2340346
:10565000C2F200034FF000021A7141F23403C2F2A9
:1056600000034FF000029A7141F23403C2F20003CA
:105670004FF003025A7141F23403C2F200034FF0BB
:105680000102DA714FF40060C4F2020041F2340109
:10569000C2F20001FFF710FD4FF008004FF00101CA
:1056A000FFF77AF841F23403C2F200034FF480624C
:1056B0001A6041F23403C2F200034FF000021A7183
:1056C00041F23403C2F200034FF000029A7141F23A
:1056D0003403C2F200034FF003025A7141F2340363
:1056E000C2F200034FF00102DA714FF44060C4F2DD
:1056F000020041F23401C2F20001FFF7DDFC80BD7F
:1057000080B500AF4FF00000C4F202004FF400413A
:10571000FFF77CFD03461A4641F24813C2F200032C
:105720001A604FF00000C4F202004FF01001FFF7C2
:105730006DFD03461A4641F24813C2F200035A6057
:105740004FF40060C4F202004FF48071FFF75EFD79
:1057500003461A4641F24813C2F200039A604FF41E
:105760000060C4F202004FF01001FFF74FFD034646
:105770001A4641F24813C2F20003DA604FF4406067
:10578000C4F202004FF48061FFF740FD03461A4661
:1057900041F24813C2F200031A614FF40060C4F2F0
:1057A00002004FF02001FFF731FD03461A4641F297
:1057B0004813C2F200035A614FF40060C4F20200C1
:1057C0004FF40071FFF722FD03461A4641F24813D9
:1057D000C2F200039A6180BDB0B500AFFFF790FF41
:1057E000FBF74AF84FF000004FF00001FBF710F80C
:1057F00040F60C62C2F2000245F2B033C0F6030379
:1058000014461D460FCD0FC42B68237040F60C6064
:10581000C2F20000FAF7E6FF4FF000004FF001017E
:10582000FAF7F6FF41F24813C2F200031B6840F694
:105830000C60C2F2000045F2C431C0F603011A4602
:105840002AF002FA40F60C60C2F20000FAF7CAFF32
:105850004FF005004FF00101FAF7DAFF41F248136B
:10586000C2F200039B6940F60C60C2F2000045F2F0
:10587000CC31C0F603011A462AF0E6F940F60C6076
:10588000C2F20000FAF7AEFF4FF00B004FF001013B
:10589000FAF7BEFF41F24813C2F200035B6840F61C
:1058A0000C60C2F2000045F2D431C0F603011A4682
:1058B0002AF0CAF940F60C60C2F20000FAF792FF33
:1058C0004FF000004FF00201FAF7A2FF41F2481337
:1058D000C2F200039B6840F60C60C2F2000045F281
:1058E000DC31C0F603011A462AF0AEF940F60C602E
:1058F000C2F20000FAF776FF4FF00A004FF0020103
:10590000FAF786FF41F24813C2F20003DB6840F663
:105910000C60C2F2000045F2E431C0F603011A4601
:105920002AF092F940F60C60C2F20000FAF75AFF32
:105930004FF000004FF00301FAF76AFF41F24813FD
:10594000C2F200031B6940F60C60C2F2000045F28F
:10595000EC31C0F603011A462AF076F940F60C60E5
:10596000C2F20000FAF73EFF4FF00A004FF00301C9
:10597000FAF74EFF41F24813C2F200035B6940F6AA
:105980000C60C2F2000045F2F431C0F603011A4681
:105990002AF05AF940F60C60C2F20000FAF722FF32
:1059A0004FF06400FFF73AFBB0BD00BF80B400AF1A
:1059B00040F6DC73C2F20003F84A1A6040F6DC736A
:1059C000C2F20003F54A5A6040F6DC73C2F20003EB
:1059D000F24A9A6040F6DC73C2F20003EF4ADA60E2
:1059E00040F6DC73C2F20003EC4A1A6140F6DC7345
:1059F000C2F20003E94A5A6140F6DC73C2F20003C6
:105A0000E64A9A6140F6DC73C2F20003E34ADA61C7
:105A100040F6DC73C2F20003E04A1A6240F6DC731F
:105A2000C2F20003DE4A5A6240F6DC73C2F200039F
:105A3000DB4A9A6240F6DC73C2F20003D74ADA62AC
:105A400040F6DC73C2F20003D64A1A6340F6DC73F8
:105A5000C2F20003D44A1A6540F6DC73C2F20003B6
:105A6000D24A5A6540F6DC73C2F20003CF4ADA64C8
:105A700040F6DC73C2F20003C84A5A6340F6DC7396
:105A8000C2F20003C54A9A6340F6DC73C2F2000317
:105A9000C24ADA6340F6DC73C2F20003BF4A1A64FA
:105AA00040F6DC73C2F20003BC4A5A6440F6DC7371
:105AB000C2F20003B94A9A6440F6FC63C2F20003E2
:105AC000B64A5A6040F6FC63C2F20003B34A9A60D9
:105AD00040F6FC63C2F20003B04ADA6040F6FC63B1
